:020000040800F2
:1000000024050020191E00086D1E0008711E00083E
:10001000751E0008791E00087D1E00080000000003
:10002000000000000000000000000000811E000829
:10003000851E000800000000891E00088D1E0008B3
:10004000151E0008151E00085D030008F5030008D2
:10005000151E0008151E0008F1120008151E0008E4
:10006000151E0008151E0008151E0008151E0008A4
:10007000151E0008151E0008151E0008151E000894
:10008000151E0008151E0008151E000800000000BF
:10009000000000000000000000000000151E000825
:1000A000151E0008151E0008151E0008151E000864
:1000B00071180008151E0008151E0008151E0008FE
:1000C000151E0008151E0008151E0008151E000844
:1000D000151E00080D190008151E0008151E000841
:1000E000151E0008151E0008151E0008000000005F
:1000F0000000000000000000000000000000000000
:1001000000000000000000000000000000000000EF
:100110000000000000000000151E0008151E000869
:100120005FF808F130B4254D00232B700378303B85
:10013000092B3BD801232B700246022312F8011F22
:100140005C1C3039092931D82B70E3B2072BF5D16B
:100150001B4B0278D97844781039091902EB8202D6
:1001600001EB4202D2B21A701A7852B2172A03DD9A
:100170001A78183AD2B21A701A781149120617D49E
:100180008178C47802794579103CA5F1100001EB23
:10019000810102EB820200EB420204EB4101C9B291
:1001A000D2B2074859709A7030BC70470020FBE704
:1001B0000A781832D2B20A70E2E700BF04000020C9
:1001C0001801002038B52948294902780023472A18
:1001D0000B7002D00446204638BD4278502AF9D12F
:1001E0008278472AF6D1C2784C2AF3D102794C2A78
:1001F000F0D1052204E00132052B08D0FF2A2ED0D1
:10020000815CD5B22C29F6D10133DBB2F3E7835CF4
:100210002C2B26D0142D174D1ED902232B70841899
:100220002046FFF77FFF2B78012BD4D1124B134DC3
:10023000187859789A7800F023F800F03BF8A878FD
:1002400000F014FDE87800F0DFFB287900F0AAFA4E
:10025000687900F009F9BEE701232B70DFE7034C52
:10026000B9E7044B00221A70004CB4E718000020D4
:100270000600002005000020180100201C010020BD
:10028000C1EB011110B54FF461638C0003FB004416
:100290000120A41801F060FD01F040FD204601F0AE
:1002A00013FD40F20803C2F200031C60BDE81040D9
:1002B00001F034BD40F20803C2F20003196844F2B1
:1002C0000753CCF22E23A3FB01234FF4A342C0F229
:1002D00001021B0C02FB13132DE9F0014BF2C53692
:1002E000C9F2A216A6FB03264FF46164F60A04FBCA
:1002F000163448F68902C8F68802A2FB0432520975
:10030000C2EB0211A4EB81044CF6CD43D5B2CCF67E
:10031000CC43F6B2E4B2A3FB0620A3FB0521A3FB6A
:100320000423C008DA08C90840F21C1300EB800857
:1003300001EB810C02EB8207C2F20003A6EB480638
:10034000A5EB4C05A4EB470458711E71D9709D7044
:100350005A701C70BDE8F001704700BF08B500205E
:1003600001F0FEFB40F20C03C2F2000301221A70FE
:1003700001F016FC01F00AFC4FF46143CEF20003D9
:100380000422C3F8802108BD08B504204AF2A55113
:1003900001F0ECFB01214FF0C05001F069FC01209D
:1003A00001F044FC01F0D2FB4AF6AA21042001F03E
:1003B000DDFB4FF4407001F03FFC012001F044FCF4
:1003C00001F0ACFC01F0B6FC01F0A8FC01200146F4
:1003D00001F062FC01F0A2FC4FF2234001F088FC26
:1003E00001F09CFC4FF46143CEF2000308221A6036
:1003F00008BD00BF10B5012001F0AEFC154B1A7806
:100400000AB3154B1A6801321A60144CFFF752FFF9
:10041000A07800F02BFCE07800F0F6FA207900F0EC
:10042000C1F9607900F020F80D4B1B78012B05D83D
:1004300048F29413C4F2212301221A60094B1A785E
:1004400001321A7010BD01221A7001F033FC024B08
:100450001860DAE70D000020080000201C010020D1
:100460000500002000000020F0B40A2830D8DFE8A2
:1004700010F0310057007E00A500CC00F3001A01F7
:100480003B01620172010B0048F2841748F28016AA
:100490004FF4CE754FF4CC744FF4CA704FF4C8715A
:1004A0004FF4C6720023C4F22127C4F221263B6018
:1004B000C4F22125C4F22124C4F22120C4F2212156
:1004C000C4F2212233602B60236003600B60136051
:1004D000F0BC704748F2841748F280164FF4CE758E
:1004E0004FF4CC744FF4CA704FF4C87101234FF429
:1004F000C672C4F22127C4F22126C4F22125C4F217
:100500002124C4F22120C4F221213B60C4F2212223
:1005100033602B60236003600B6000231360D7E718
:1005200048F2841C48F280174FF4CE754FF4CC7417
:100530004FF4CA704FF4C8714FF4C67200230126FD
:10054000C4F2212CC4F22127C4F22125C4F22124B3
:10055000C4F22120C4F22121C4F22122CCF80030BF
:100560003E602E60236003600B601360B0E748F2CA
:10057000841C48F280174FF4CE764FF4CC754FF4BC
:10058000CA744FF4C8714FF4C67201230020C4F23C
:10059000212CC4F22127C4F22126C4F22125C4F261
:1005A0002124C4F22121C4F22122CCF800303B6086
:1005B00030602B6023600860136089E748F2841C78
:1005C00048F280174FF4CE764FF4CC754FF4CA74CE
:1005D0004FF4C8714FF4C67201230020C4F2212CDD
:1005E000C4F22127C4F22126C4F22125C4F2212419
:1005F000C4F22121C4F22122CCF800303B603360E8
:100600002B6020600860136062E748F2841C48F2A7
:1006100080174FF4CE764FF4CC754FF4CA744FF474
:10062000C8704FF4C67101230022C4F2212CC4F219
:100630002127C4F22126C4F22125C4F22124C4F2C8
:100640002120C4F22121CCF800203B6033602A60D5
:10065000226003600B603BE748F2841C48F280177D
:100660004FF4CE764FF4CC754FF4CA704FF4C87186
:100670004FF4C67201230024C4F2212CC4F22127B6
:10068000C4F22126C4F22125C4F22120C4F2212182
:10069000C4F22122CCF800303C6033602B6004604F
:1006A0000B60136014E748F28417C4F2212748F264
:1006B000801601233B604FF4CE754FF4CC744FF499
:1006C000CA704FF4C8714FF4C672C4F221260027D5
:1006D000C4F22125C4F22124C4F22120C4F2212134
:1006E000C4F221223760EEE648F2841C48F28017FB
:1006F0004FF4CE764FF4CC754FF4CA744FF4C870F3
:100700004FF4C67100230122C4F2212CC4F2212728
:10071000C4F22126C4F22125C4F22124C4F22120EE
:10072000C4F22121CCF800203A6032602B602360B3
:1007300003600B60CCE648F2841748F280164FF451
:10074000CE754FF4CC744FF4CA704FF4C8714FF4A7
:10075000C6720123A7E648F2841748F280164FF4C8
:10076000CE754FF4CC740123C4F221244FF4CA7027
:100770004FF4C8714FF4C672C4F22127C4F2212687
:10078000C4F221253B60C4F221203360C4F2212150
:100790002B60C4F221222360002404600B601360EC
:1007A00096E600BF0A2830D8DFE810F03000550088
:1007B00069008E00AA00CF00E70003010D011D01B2
:1007C0000B004FF40062C4F20102D1684FF44063A1
:1007D00021F00201D160D168C4F2010321F00401CB
:1007E000D160DA6822F40072DA60DA6822F480728A
:1007F000DA60DA6822F40062DA60DA6822F4806291
:10080000DA60DA6822F00402DA6070474FF40062BE
:10081000C4F20102D1684FF4406341F00201D1609B
:10082000D168C4F2010341F00401D160DA6842F4F6
:100830000072DA60DA6842F48072DA60DA6842F4F0
:100840000062DA60DA6842F48062DA60DA6822F024
:100850000402DA6070474FF40062C4F20102D1680A
:100860004FF4406321F00201D160D168C4F201036A
:1008700041F00401D160DA6842F40072B4E74FF449
:100880000062C4F20102D1684FF4406341F00201FA
:10089000D160D168C4F2010341F00401D160DA688B
:1008A00022F40072DA60DA6842F48072DA60DA68A0
:1008B00042F40062DA60DA6822F48062DA60DA68B0
:1008C00042F00402DA6070474FF40062C4F20102A1
:1008D000D1684FF4406341F00201D160D168C4F2A5
:1008E000010341F00401D160DA6842F40072DA6079
:1008F000DA6842F48072DA60DA6822F40062D9E7DA
:100900004FF40062C4F20102D1684FF4406321F059
:100910000201D160D168C4F2010341F00401D16049
:10092000DA6842F40072DA60DA6822F48072DA601F
:10093000DA6822F40062DA60DA6842F48062DA602F
:10094000DA6842F00402DA6070474FF40062C4F2E1
:100950000102D1684FF4406341F00201D160D168D7
:10096000C4F2010321F00401D160DA6842F400729C
:10097000DA60DA6842F48072D9E74FF40062C4F2B8
:100980000102D1684FF4406341F00201D160D168A7
:10099000C4F2010321F00401D160DA6842F400726C
:1009A000DA60DA6842F48072DA60DA6842F400628F
:1009B000C1E74FF40062C4F20102D1684FF4406312
:1009C00041F0020150E74FF40062C4F20102D16825
:1009D0004FF4406341F00201D160D168C4F20103D9
:1009E00041F00401D8E74FF40062C4F20102D1687B
:1009F0004FF4406341F00201D160D168C4F20103B9
:100A000041F00401B0E700BF0A2830D8DFE810F059
:100A10003000550069008E00AA00CF00E7000301F6
:100A20000D011D010B004FF40062C4F20102D168F8
:100A30004FF4406321F48071D160C4F20103D9689E
:100A400021F40041D960D96821F48041D960D96886
:100A500021F40051D960D96821F48051D960D96856
:100A600021F08001D960D36823F48043D3607047BC
:100A70004FF40062C4F20102D1684FF4406341F4C4
:100A80008071D160C4F20103D96841F40041D9609A
:100A9000D96841F48041D960D96841F40051D960E6
:100AA000D96841F48051D960D96841F08001D9609A
:100AB000D36823F48043D36070474FF40062C4F2DC
:100AC0000102D1684FF4406321F48071D160C4F217
:100AD0000103D96841F40041D960D96841F48041EB
:100AE000B4E74FF40062C4F20102D1684FF44063EE
:100AF00041F48071D160C4F20103D96841F400412E
:100B0000D960D96821F48041D960D96841F4005195
:100B1000D960D96841F48051D960D96821F0800149
:100B2000D960D36843F48043D36070474FF40062C8
:100B3000C4F20102D1684FF4406341F48071D16086
:100B4000C4F20103D96841F40041D960D96841F485
:100B50008041D960D96841F40051D960D96821F445
:100B60008051D9E74FF40062C4F20102D1684FF41A
:100B7000406321F48071D160C4F20103D96841F46B
:100B80000041D960D96841F48041D960D96821F425
:100B90000051D960D96821F48051D960D96841F0F9
:100BA0008001D960D36843F48043D36070474FF429
:100BB0000062C4F20102D1684FF4406341F48071D5
:100BC000D160C4F20103D96821F40041D960D96829
:100BD00041F48041D960D96841F40051D9E74FF41C
:100BE0000062C4F20102D1684FF4406341F48071A5
:100BF000D160C4F20103D96821F40041D960D968F9
:100C000041F48041D960D96841F40051D960D96874
:100C100041F48051C1E74FF40062C4F20102D1688F
:100C20004FF4406341F4807150E74FF40062C4F226
:100C30000102D1684FF4406341F48071D160C4F285
:100C40000103D96841F40041D8E74FF40062C4F2CF
:100C50000102D1684FF4406341F48071D160C4F265
:100C60000103D96841F40041B0E700BFF0B40A289D
:100C700030D8DFE810F0310057007E00A500CC002E
:100C8000F3001A013B01620172010B0048F2981750
:100C900048F290164FF4DE754FF4DA744FF4D870C2
:100CA0004FF4D6714FF4D2720023C4F22127C4F25C
:100CB00021263B60C4F22125C4F22124C4F2212064
:100CC000C4F22121C4F2212233602B60236003602F
:100CD0000B601360F0BC704748F2981748F290160A
:100CE0004FF4DE754FF4DA744FF4D8704FF4D671C8
:100CF00001234FF4D272C4F22127C4F22126C4F298
:100D00002125C4F22124C4F22120C4F221213B6018
:100D1000C4F2212233602B60236003600B60002348
:100D20001360D7E748F2981C48F290174FF4DE752D
:100D30004FF4DA744FF4D8704FF4D6714FF4D27286
:100D400000230126C4F2212CC4F22127C4F221255C
:100D5000C4F22124C4F22120C4F22121C4F22122B0
:100D6000CCF800303E602E60236003600B6013609F
:100D7000B0E748F2981C48F290174FF4DE764FF433
:100D8000DA754FF4D8744FF4D6714FF4D272012350
:100D90000020C4F2212CC4F22127C4F22126C4F27F
:100DA0002125C4F22124C4F22121C4F22122CCF84D
:100DB00000303B6030602B6023600860136089E77F
:100DC00048F2981C48F290174FF4DE764FF4DA752B
:100DD0004FF4D8744FF4D6714FF4D272012300202F
:100DE000C4F2212CC4F22127C4F22126C4F2212509
:100DF000C4F22124C4F22121C4F22122CCF8003013
:100E00003B6033602B6020600860136062E748F24B
:100E1000981C48F290174FF4DE764FF4DA754FF4D1
:100E2000D8744FF4D6704FF4D27101230022C4F26B
:100E3000212CC4F22127C4F22126C4F22125C4F2B8
:100E40002124C4F22120C4F22121CCF800203B60EF
:100E500033602A60226003600B603BE748F2981C15
:100E600048F290174FF4DE764FF4DA754FF4D870ED
:100E70004FF4D6714FF4D27201230024C4F2212C16
:100E8000C4F22127C4F22126C4F22125C4F2212074
:100E9000C4F22121C4F22122CCF800303C6033603E
:100EA0002B6004600B60136014E748F29817C4F2DB
:100EB000212748F2901601233B604FF4DE754FF472
:100EC000DA744FF4D8704FF4D6714FF4D272C4F282
:100ED00021260027C4F22125C4F22124C4F22120B6
:100EE000C4F22121C4F221223760EEE648F2981CB8
:100EF00048F290174FF4DE764FF4DA754FF4D87459
:100F00004FF4D6704FF4D27100230122C4F2212C89
:100F1000C4F22127C4F22126C4F22125C4F22124DF
:100F2000C4F22120C4F22121CCF800203A603260C2
:100F30002B60236003600B60CCE648F2981748F200
:100F400090164FF4DE754FF4DA744FF4D8704FF406
:100F5000D6714FF4D2720123A7E648F2981748F2EF
:100F600090164FF4DE754FF4DA740123C4F2212495
:100F70004FF4D8704FF4D6714FF4D272C4F22127D7
:100F8000C4F22126C4F221253B60C4F22120336043
:100F9000C4F221212B60C4F22122236000240460CA
:100FA0000B60136096E600BF08B50A20FFF75CFAF5
:100FB0000A20FFF7F7FB0A20FFF726FD0A20FFF7BC
:100FC00055FE48F29413C4F2212300221A6008BD92
:100FD00048F2841370B5C4F2212301251D604FF43B
:100FE0007A7000F03BFC48F28013C4F221231D60AC
:100FF0004FF47A7000F032FC4FF4CE73C4F2212328
:101000001D604FF47A7000F029FC4FF4CC73C4F2E9
:1010100021231D604FF47A7000F020FC4FF4CA7356
:10102000C4F221231D604FF47A7000F017FC4FF4D6
:10103000C873C4F221231D604FF47A7000F00EFCD7
:101040004FF4C673C4F221234FF40066C4F20106C4
:101050001D604FF47A7000F001FCF3684FF47A7071
:1010600043F00203F36000F0F9FBF3684FF44064CF
:1010700043F00403C4F20104F3604FF47A7000F00B
:10108000EDFBE3684FF47A7043F40073E36000F023
:10109000E5FBE3684FF47A7043F48073E36000F09B
:1010A000DDFBE3684FF47A7043F40063E36000F023
:1010B000D5FBE3684FF47A7043F48063E36000F09B
:1010C000CDFBE3684FF47A7043F00403E36000F073
:1010D000C5FBF3684FF47A7043F48073F36000F05B
:1010E000BDFBE3684FF47A7043F40043E36000F023
:1010F000B5FBE3684FF47A7043F48043E36000F09B
:10110000ADFBE3684FF47A7043F40053E36000F002
:10111000A5FBE3684FF47A7043F48053E36000F07A
:101120009DFBE3684FF47A7043F08003E36000F0C6
:1011300095FBF3684FF47A7043F48043F36000F05A
:101140008DFB48F29813C4F221231D604FF47A708E
:1011500000F084FB48F29013C4F221231D604FF489
:101160007A7000F07BFB4FF4DE73C4F221231D6024
:101170004FF47A7000F072FB4FF4DA73C4F221235B
:101180001D604FF47A7000F069FB4FF4D873C4F21D
:1011900021231D604FF47A7000F060FB4FF4D6738A
:1011A000C4F221231D604FF47A7000F057FB4FF416
:1011B000D273C4F221231D604FF47A7000F04EFB0D
:1011C00048F29413C4F221234FF47A701D60BDE8F5
:1011D000704000F043BB00BF4FF4E043C0F6000393
:1011E000B3F90000704700BF2DE9F0414FF40056FD
:1011F000C4F2020605460C46904600F0DBFC33695B
:10120000013443F0020333617561336924F0010452
:1012100043F04003336100BF00BFF368DB0742BF08
:101220004FF44051C4F200014AF6AA2703D50F60DB
:10123000F368D807FBD44FF40051C4F202010B69E4
:1012400023F002030B61D4B12846C5EB08050A69F7
:101250002B5A42F001020A610380CA684FF400531E
:10126000D207C4F20203F8D41A6922F001021A610B
:10127000DA6812F0140F07D10230023CE7D100F017
:10128000A9FC0020BDE8F081DA68012042F01402D8
:10129000DA60BDE8F08100BF00B583B002AA22F891
:1012A000020D4FF4E0400221C0F60000FFF79CFF62
:1012B00003B000BD012008B5014600F0CBFC0022C0
:1012C000C4F2010291684FF480639160C4F201039B
:1012D00019684FF4614241F0010119609968CEF23A
:1012E000000241F0010199604023136008BD00BF76
:1012F00010B540F21813C2F20003187859789A78A2
:1013000040F21C140132D2B2FEF7BAFF48F2941335
:10131000C4F221231A68C2F20004D2431A60FEF715
:10132000C9FFA078FFF7A2FCE078FFF76DFB2079FA
:10133000FFF738FA6079FFF797F84FF48063C4F24B
:1013400001035A6942F001025A6110BD01200146B1
:1013500008B500F07FFC012000F068FC002000F0E0
:10136000FFFB002000F062FC4FF48052C4F2020246
:1013700091694FF4805341F010019161C4F201036F
:101380005A6822F440125A605A6822F440025A60A5
:101390005A6842F400025A6008BD00BF4FF4805200
:1013A000C4F2020291694FF4006341F00401C4F2F7
:1013B000010391611A6822F003021A601A6822F090
:1013C0000C021A601A6842F008021A601A6822F4C5
:1013D00070721A601A6842F020021A60DA6822F00D
:1013E0000202DA601A6822F470621A601A6842F423
:1013F00000721A60DA6822F00402DA601A6822F4D5
:1014000070421A601A6842F400521A60DA6822F0D8
:101410000802DA601A6822F470221A601A6842F42C
:1014200000321A60DA6822F01002DA601A6822F4D8
:1014300070021A601A6842F400121A60DA6822F028
:101440002002DA601A6822F070621A601A6842F0AC
:1014500000721A60DA6822F04002DA601A6822F03C
:1014600070421A601A6842F000521A60DA6822F07C
:101470008002DA605A6822F00F025A605A6842F01D
:1014800002025A60DA6822F48072DA605A6822F046
:10149000F0025A605A6842F020025A60DA6822F478
:1014A0000072DA605A6822F440725A605A6822F474
:1014B00040625A605A6842F400625A605A6822F4E4
:1014C00070425A605A6842F400525A60DA6822F454
:1014D0000062DA605A6822F470225A605A6842F454
:1014E00000325A60DA6822F48052DA605A6822F0D8
:1014F00070425A605A6842F000525A60DA6822F428
:101500000042DA60704700BF4FF48052C4F202021A
:101510009369002143F001039361C4F2010148681B
:101520004FF4406340F0007048609169C4F20103D9
:1015300041F0080191611A6822F00F021A601A68DE
:1015400042F002021A60DA6822F00802DA601A68D1
:1015500022F0F0021A601A6842F020021A60DA687B
:1015600022F00202DA601A6822F470621A601A68C5
:1015700042F400721A60DA6822F00402DA601A6833
:1015800022F440521A601A6822F440421A601A6823
:1015900022F400421A601A6822F470221A601A6853
:1015A00042F400321A60DA6822F01002DA601A6837
:1015B00022F470021A601A6842F400121A60DA68A3
:1015C00022F02002DA601A6822F070621A601A684B
:1015D00042F000721A60DA6822F04002DA601A689B
:1015E00022F070421A601A6842F000521A60DA68FB
:1015F00022F08002DA605A6822F00F025A605A68BC
:1016000042F002025A60DA6822F48072DA605A68A4
:1016100022F0F0025A605A6842F020025A60DA68FA
:1016200022F40072DA605A6822F470625A605A68D2
:1016300042F400725A60DA6822F48062DA605A6812
:1016400022F470425A605A6842F400525A60DA68D2
:1016500022F40062DA605A6822F470225A605A68F2
:1016600042F400325A60DA6822F48052DA605A6832
:1016700022F470025A605A6842F400125A60DA6822
:1016800022F40052DA605A6822F070625A605A6896
:1016900042F000725A60DA6822F48042DA605A68D6
:1016A00022F070425A605A6842F000525A60DA687A
:1016B00022F40042DA6070472DE9F041DFF8C8807B
:1016C000032388F80330FFF741FEFFF71DFFFFF704
:1016D00065FE4FF47A7000F0C1F80022C4F20102F6
:1016E00051684FF4006321F0E06141F08061516086
:1016F000C4F201035A6840F6B83022F470025A600E
:101700005A6848F2941642F400125A60DA681C4D86
:1017100022F40052DA605A681A4C22F070625A6061
:101720005A68C4F2212642F000725A60DA68012732
:1017300022F48042DA6000F091F8FFF74DFDC0B26C
:1017400088F80300FFF730FCFFF742FCFFF72CFCA2
:1017500000F088F900F09EF8FFF7ACFDFEF714FEEC
:1017600000F014F803E02378022B18BF376000F074
:101770004DFA2B78002BF6D0FEF724FDF3E700BFDF
:1017800006000020050000201801002008B545F2E1
:10179000555000F029FA032000F02CFA40F2E7300F
:1017A00000F02EFA00F032FABDE8084000F036BA38
:1017B0004FF48052C4F2020210B4D469013844F0EC
:1017C0000104D4614FF08043002180B241F63F72A2
:1017D000998419829980198018859A851A884FF4FE
:1017E000614422F010021204120C1A801A8840F28E
:1017F0000E0022F002021204120C1A801A88CEF295
:10180000000422F440721204120C1A801A88C2F2E8
:10181000000022F080021204120C1A801A8892B280
:1018200042F008021A809A8992B242F001029A812B
:101830001A8892B242F004021A809A8A22F00102B7
:101840001204120C9A821A8892B242F001021A8093
:101850004FF080532360017010BC704708B5FFF74C
:10186000A7FF024A1378002BFCD008BD0E00002011
:101870004FF08042138ADB0705D5138A23F001035A
:101880001B041B0C1382024B01221A70704700BF0D
:101890000E0000204FF48053C4F202039A6910B581
:1018A00042F004029A619A694FF4605442F00102D6
:1018B0009A619A69C4F2010442F480429A61A38950
:1018C00082B09BB243F00403A38140F241332381F1
:1018D00042F20403A3810121204600F047FA20468A
:1018E00040F22551012200F04FFA0024012301A803
:1018F00025228DF804208DF805308DF806408DF8EE
:10190000073000F0E5F8204602B010BD4FF46050FB
:1019100010B5C4F2010040F2277100F055FA18B179
:101920001B4B1A6801321A604FF46050C4F2010078
:1019300040F2255100F048FA00B910BD4FF4605054
:10194000C4F2010000F03CFA124BC0B22428187017
:1019500016D0114B114C1A68511CFE29A054D8BF47
:1019600019600ADC4FF46052C4F20102138823F0BC
:1019700020031B041B0C138010BD00221A60F1E72A
:10198000054B00221A60064B01221A70EAE700BFDD
:10199000100000200F00002014000020180000207C
:1019A0000600002038B50A20FEF75EFD0A20FEF78B
:1019B000F9FE0A20FFF728F80A20FFF757F94FF43D
:1019C000CC704FF4CA714FF4C8720123C4F22122C3
:1019D000C4F22120C4F22121214C03600B6013606A
:1019E000E37813F0800F4FF44063C4F20103DA6828
:1019F00020D122F00402DA60E37846F26765C6F28D
:101A000066655BB285FB0320DB17C3EBA000C0B2A9
:101A1000FEF7FAFFE3785BB285FB0325DA17C2EB2A
:101A2000A50505EB8505A3EB4500C0B2BDE8384030
:101A3000FFF71CB942F00402DA60E0784CF6CD45BD
:101A40004042CCF6CC45C0B2A5FB0020C008FEF752
:101A5000DBFFE3785B42DBB2A5FB0325ED08E0E7A3
:101A6000180100202DE9F0414FF49A76FFF79AFF14
:101A7000C4F222264FF4FA60FFF7F0FE3368F3B9A0
:101A8000124D4FF0F4082F46012C03D9EB780133A7
:101A9000DBB2EB70EB780D2B08BF87F80380FFF704
:101AA00081FF4FF4FA60FFF7D9FE33680134E4B2E6
:101AB000002BE9D01CB1E87840B2FFF7EDFB4FF402
:101AC000FA60BDE8F041FFF7C9BE00BF1801002071
:101AD000C37830B47BB90378012103F01F0201FA07
:101AE00002F15A094FF46143CEF20003203243F869
:101AF000221030BC70474FF46D43CEF20003DB6818
:101B00004478DB43C3F302230F22C3F1040122FA1A
:101B100003F304FA01F48578017803EA050222430D
:101B200001F160431201D2B203F5614383F800234F
:101B30000278012102F01F0301FA03F14FF461431F
:101B4000CEF20003520943F82210D2E7012008B573
:101B500000F09CF80020BDE8084000F097B800BFF6
:101B60004FF40643C4F20D23186070474FF4D84376
:101B700082B0C4F20003002201920193019BC018BD
:101B80000190019B196002B0704700BF4FF4D84329
:101B9000C4F200039A8E92B242F001029A86704714
:101BA0004FF4D843C4F200039A8E92B242F002027C
:101BB0009A8670474FF4005340F2231148F6AB1257
:101BC000C4F20203C4F26751CCF6EF5259605A6076
:101BD000704700BF4FF40053C4F202031A6942F089
:101BE00080021A61704700BF4FF44053C4F20003F3
:101BF000186070474FF44053C4F2000358607047B8
:101C00004FF44053C4F20003986070474FF44053C0
:101C1000C4F200034AF6AA221A6070474FF44053F8
:101C2000C4F200034CF6CC421A6070472023C4F281
:101C30000E231860704700BF4FF48053C4F20203B4
:101C40001A6A10431862704740F23C43C4F24223C0
:101C5000186070474FF48053C4F202039A6919B9AF
:101C600022EA00009861704710439861704700BFF6
:101C70004FF48053C4F20203DA6919B922EA000072
:101C8000D86170471043D861704700BF4FF4886334
:101C9000C4F24223186070474FF42053C4F200038B
:101CA0001A8892B219B922EA0000188070471043CE
:101CB000188070474FF42053C4F200039A8B188B9E
:101CC00093B243EA004070474FF42053C4F200033C
:101CD0009A88010C92B242F0100280B29A80198365
:101CE00098839A8822F010021204120C9A8070478E
:101CF0004FF42053C4F200039A88C0F3034192B218
:101D000042F0100280B29A80198198819A8822F05C
:101D100010021204120C9A80704700BF4FF4205238
:101D2000C4F20002938803F020039BB2002BF9D089
:101D3000704700BF4FF42051C4F200018B880A465F
:101D400023F008031B041B0C8B80938803F008030B
:101D50009BB2002BF9D070474FF42053C4F200031C
:101D60009A8892B222EA000098807047838929B944
:101D700023F400531B041B0C838170479BB243F474
:101D800000538381704700BF01F01F0310B4C1F3FB
:101D900042110124A14204FA03F30DD002290DD00F
:101DA00014302AB9026822EA0303036010BC7047AA
:101DB000026813430360F9E70C30F2E71030F0E7F4
:101DC0008088C005C00D7047C1F3421310B401F004
:101DD0001F020124012B04FA02F416D0022B0CBFBF
:101DE000028A828A92B222400123090A03FA01F18F
:101DF00003889BB219420CBF00200120002A0CBFAF
:101E0000002000F0010010BC7047828992B222408D
:101E1000EAE700BFFEE700BF0F49104B10B599423B
:101E20000BD2C843C01820F003000D4C043000232F
:101E30001A595A5004338342FAD10A480A494FF0DA
:101E400000028842B8BF40F8042BFADB00F020F80B
:101E5000BDE81040FFF730BC000000200400002067
:101E6000541F00080400002024010020704700BF18
:101E7000FEE700BFFEE700BFFEE700BFFEE700BFD2
:101E8000704700BF704700BF704700BF704700BF7A
:101E90004FF48053C4F202031968002241F001019B
:101EA00019605968CFF6FF020A405A601A6800218B
:101EB00022F0847222F480321A601A6882B022F40E
:101EC00080221A6058681A4620F4FE0058604FF4C9
:101ED0001F009860D96200910191196841F4803126
:101EE000196003E0009BB3F5A06F09D0136803F4F9
:101EF00000330193009B01330093019B002BF1D031
:101F00004FF48053C4F202031B6813F4003308BF7C
:101F1000019301D001230193019B012B01D002B059
:101F200070474FF48053C4F2020359681A4659604F
:101F30005968596059685960596821F0030159601E
:101F4000596841F001015960536803F00C03042BF8
:041F5000FAD1E4E7F7
:041F54000100000088
:0400000508000000EF
:00000001FF
