:020000040800F2
:100000004C040020D9120008D5120008D5120008AF
:10001000D5120008D5120008D51200080000000013
:10002000000000000000000000000000D5120008E1
:10003000D512000800000000D5120008D5120008F3
:10004000D5120008D5120008CD010008850200086D
:10005000D5120008D5120008A50E0008CD0E000824
:10006000F50E00081D0F0008450F0008D512000806
:10007000D5120008D5120008D5120008D5120008C4
:10008000D5120008D5120008610500080000000024
:10009000000000000000000000000000D512000871
:1000A000D5120008D5120008D5120008D512000894
:1000B000A5140008D5120008D5120008D5120008B2
:1000C000D5120008D5120008D5120008D512000874
:1000D000D5120008D5120008D5120008D512000864
:1000E000D5120008D5120008D51200080000000043
:1000F0000000000000000000000000000000000000
:1001000000000000000000000000000000000000EF
:100110000000000000000000D5120008D512000801
:100120005FF808F140F20803C2F20003196844F2D4
:100130000753CCF22E23A3FB01234FF4A342C0F2BA
:1001400001021B0C02FB13132DE9F0014BF2C53623
:10015000C9F2A216A6FB03264FF46164F60A04FB5B
:10016000163448F68902C8F68802A2FB0432520906
:10017000C2EB0211A4EB81044CF6CD43D5B2CCF610
:10018000CC43F6B2E4B2A3FB0620A3FB0521A3FBFC
:100190000423C008DA08C90840F2180300EB8008FD
:1001A00001EB810C02EB8207C2F20003A6EB4806CA
:1001B000A5EB4C05A4EB470458711E71D9709D70D6
:1001C0005A701C70BDE8F001704700BF08B50020F0
:1001D00001F00EFB40F20C03C2F2000301221A7080
:1001E00001F016FB01F00AFB4FF46143CEF200036D
:1001F0000422C3F8802108BD10B54FF4C06082B05E
:1002000001F00CFA0323012401A88DF80430002327
:100210008DF806308DF805408DF8074001F008FA9A
:1002200021464FF0C05001F023FD204601F0E4FCD0
:10023000204601F0F1FC412001F028FD0028FAD011
:100240004FF4807001F0F8FC012001F0FDFC01F09A
:1002500083FD0120014601F031FD4FF4D843C4F283
:1002600000039A8D48F2060092B242F019029A8574
:1002700001F050FD01F064FD002001F0BDFC02B072
:1002800010BD00BFF8B5012001F078FD3B4B1A7896
:10029000002A6BD03A4B1A6801321A60394D4BF282
:1002A000C5372A78C9F2A21712F0010F4FF4406245
:1002B000C4F2010211694FF4616014BF41F01001F2
:1002C00041F480111161196844F20753CCF22E23D6
:1002D000A3FB01234FF4A342C0F201021B0C02FB5B
:1002E0001313A7FB0317FF0A00FB173048F6890218
:1002F000C8F68802A2FB00324CF6CD435209D4B2B4
:10030000CCF6CC43C2EB0212A3FB0416A0EB820096
:10031000C0B2FFB2A3FB0721A3FB0023F20802EB4C
:100320008206DB08C908A4EB460603EB830E164CD5
:1003300001EB810CF6B2A0EB4E0EA7EB4C0730465A
:1003400063706171E27084F800E02771A67000F0BC
:100350008DFCE07800F06EFB207900F04FFA6079B8
:1003600000F030F92B7801332B70F8BD01221A70A0
:1003700001F0B2FC024B186090E700BF04000020BF
:10038000080000200000002018000020F8B5374BBE
:100390004FF40060002519460222C4F201001A80C1
:1003A000DD7001F03FFA4FF4004001F02BFC4FF4F8
:1003B0000070012101F04EFC2D4C01264FF410502D
:1003C00032460723C4F2010031464FF4602725600E
:1003D00025716571A760E560267401F0B5F94FF4E9
:1003E0001050C4F20100214601F060F94FF41050A2
:1003F000C4F20100314601F07FF94FF41050C4F20D
:10040000010001F083F94FF41050C4F2010001F033
:1004100083F90028F7D14FF41050C4F2010001F025
:100420007FF94FF41054C4F20104204601F07EF924
:100430000028F6D10121204601F05EF92046012175
:1004400001F078F90B4B202262601846012212213C
:100450005A709A70DA70197001F0EAF84FF461433B
:10046000CEF200034FF480221A60F8BD4400002051
:100470002000002048000020384B30B41A885888EB
:100480009988002A2CBF14460024B2F5805F34BF3F
:1004900015464FF48055844238BF0446DA888542B9
:1004A00028BF05468C4238BF0C4618898D4228BFAC
:1004B0000D46944238BF14465989954228BF1546C7
:1004C000844238BF04469A89854238BF28468C4208
:1004D00038BF0C46DB89884238BF0146944238BF9A
:1004E0001446914238BF0A46A34228BF1C46934295
:1004F00028BF134640F2852294428CBF002201227D
:10050000B3F5047F98BF0022D2B9B4F5717F40F2F1
:1005100015318CBF002201228B4298BF002212B1FC
:10052000022030BC704740F23D3294428CBF002222
:100530000122B3F52A7F38BF00221AB10320F0E769
:100540000120EEE7B4F50D6F40F236728CBF00204B
:100550000120934298BF00208000E2E73400002091
:1005600038B54FF41050124C4FF40871C4F201002A
:1005700001F03AF925784FF4105005F00705C4F260
:100580000100257001F02CF90A4A237822F81500A1
:10059000094932F81320B1F9000015B2281AFA28D7
:1005A00002DD06487525058001330A80237038BDB9
:1005B0000D00002034000020020000201400002064
:1005C000704700BF09282FD8DFE810F02F00540033
:1005D00079009E00BA00D200E200FE0008010A0085
:1005E0004FF44063C4F20103D9684FF4006241F450
:1005F0008071D960D968C4F2010241F40071D960F8
:10060000D96841F48051D960D96841F40051D9606A
:10061000D96821F48041D960D96841F40041D9609A
:10062000D36843F01003D36070474FF44063C4F2C3
:100630000103D9684FF4006241F48071D960D96830
:10064000C4F2010241F40071D960D96841F48051CB
:10065000D960D96841F40051D960D96841F480412A
:10066000D960D96841F40041D960D36823F0100300
:10067000D36070474FF44063C4F20103D9684FF46C
:10068000006221F48071D960D968C4F2010241F49A
:100690000071D960D96841F48051D960D96821F4DA
:1006A0000051D960D96821F48041D960D96821F41A
:1006B0000041D960D36823F01003D36070474FF432
:1006C0004063C4F20103D9684FF4006241F48071C1
:1006D000D960D968C4F2010241F40071D960D968C7
:1006E00021F48051D960D96841F40051D960D968AA
:1006F00041F48041D960D96821F40041D960D368C0
:1007000043F01003D36070474FF44063C4F2010319
:10071000D9684FF4006241F48071D960D968C4F29D
:10072000010241F40071D960D96841F48051D96067
:10073000D96841F40051D960D96821F48041D9E7E2
:100740004FF44063C4F20103D9684FF4006221F40E
:100750008071D960D968C4F2010241F40071D96096
:10076000D96841F48051D960D96821F400514EE72D
:100770004FF44063C4F20103D9684FF4006241F4BE
:100780008071D960D968C4F2010221F4007136E7A2
:100790004FF44063C4F20103D9684FF4006241F49E
:1007A0008071D960D968C4F2010221F40071D96066
:1007B000D96841F48051D960D96841F40051D960B9
:1007C000D96841F4804126E74FF44063C4F2010345
:1007D000D9684FF4006241F4807154E74FF44063EC
:1007E000C4F20103D9684FF4006241F48071D9600A
:1007F000D968C4F2010241F40071D8E709282FD862
:10080000DFE810F02F00540079009E00BA00D200FB
:10081000E200FE0008010A004FF40063C4F2010385
:10082000D9684FF4406241F00801D960D968C4F238
:10083000010241F48051D960D96841F00401D960C6
:10084000D16841F40061D160D96821F00101D9601B
:10085000D36843F00103D360D36843F48063D3606B
:1008600070474FF40063C4F20103D9684FF440624B
:1008700041F00801D960D968C4F2010241F4805105
:10088000D960D96841F00401D960D16841F40061B0
:10089000D160D96841F00101D960D36843F0010308
:1008A000D360D36823F48063D36070474FF4006350
:1008B000C4F20103D9684FF4406221F00801D96005
:1008C000D968C4F2010241F48051D960D96841F07D
:1008D0000401D960D16821F40061D160D96821F0A8
:1008E0000101D960D36823F00103D360D36823F4F6
:1008F0008063D36070474FF40063C4F20103D9688A
:100900004FF4406241F00801D960D968C4F2010295
:1009100041F48051D960D96821F00401D960D168CF
:1009200041F40061D160D96841F00101D960D36818
:1009300023F00103D360D36843F48063D36070472E
:100940004FF40063C4F20103D9684FF4406241F0F0
:100950000801D960D968C4F2010241F48051D9601C
:10096000D96841F00401D960D16841F40061D160D7
:10097000D96821F00101D9E74FF40063C4F2010303
:10098000D9684FF4406221F00801D960D968C4F2F7
:10099000010241F48051D960D96841F00401D96065
:1009A000D16821F400614EE74FF40063C4F2010303
:1009B000D9684FF4406241F00801D960D968C4F2A7
:1009C000010221F4805136E74FF40063C4F20103C1
:1009D000D9684FF4406241F00801D960D968C4F287
:1009E000010221F48051D960D96841F00401D96035
:1009F000D16841F40061D160D96841F0010126E776
:100A00004FF40063C4F20103D9684FF4406241F02F
:100A1000080154E74FF40063C4F20103D9684FF4AE
:100A2000406241F00801D960D968C4F2010241F482
:100A30008051D8E709282FD8DFE810F02F005400A4
:100A400079009E00BA00D200E200FE0008010A0010
:100A50004FF40063C4F20103D9684FF4406241F0DF
:100A60002001D960C4F20102D16841F04001D16097
:100A7000D16841F08001D160DA6842F04002DA606A
:100A8000DA6822F08002DA60DA6842F48072DA60B2
:100A9000DA6842F40062DA6070474FF40063C4F22F
:100AA0000103D9684FF4406241F02001D960C4F2DB
:100AB0000102D16841F04001D160D16841F080016C
:100AC000D160DA6842F04002DA60DA6842F080020F
:100AD000DA60DA6842F48072DA60DA6822F400627E
:100AE000DA6070474FF40063C4F20103D9684FF431
:100AF000406221F02001D960C4F20102D16841F0C6
:100B00004001D160D16841F08001D160DA6822F003
:100B10004002DA60DA6822F08002DA60DA6822F4F1
:100B20008072DA60DA6822F40062DA6070474FF4AB
:100B30000063C4F20103D9684FF4406241F0200120
:100B4000D960C4F20102D16841F04001D160D1689E
:100B500021F08001D160DA6842F04002DA60DA68A0
:100B600042F08002DA60DA6822F48072DA60DA68D1
:100B700042F40062DA6070474FF40063C4F201038C
:100B8000D9684FF4406241F02001D960C4F20102FB
:100B9000D16841F04001D160D16841F08001D1605D
:100BA000DA6842F04002DA60DA6822F08002D9E7BF
:100BB0004FF40063C4F20103D9684FF4406221F09E
:100BC0002001D960C4F20102D16841F04001D16036
:100BD000D16841F08001D160DA6822F040024EE72E
:100BE0004FF40063C4F20103D9684FF4406241F04E
:100BF0002001D960C4F20102D16821F0400136E73A
:100C00004FF40063C4F20103D9684FF4406241F02D
:100C10002001D960C4F20102D16821F04001D16005
:100C2000D16841F08001D160DA6842F04002DA60B8
:100C3000DA6842F0800226E74FF40063C4F2010351
:100C4000D9684FF4406241F0200154E74FF400634B
:100C5000C4F20103D9684FF4406241F02001D96029
:100C6000C4F20102D16841F04001D8E709282FD829
:100C7000DFE810F02F00540079009E00BA00D20087
:100C8000E200FE0008010A004FF40062C4F2010213
:100C9000D1684FF4406341F40041D160C4F20103D4
:100CA000D96841F02001D960D16841F48061D160F8
:100CB000D16841F40071D160DA6822F00202DA6092
:100CC000DA6842F00802DA60DA6842F00402DA60B8
:100CD00070474FF40062C4F20102D1684FF44063E0
:100CE00041F40041D160C4F20103D96841F0200110
:100CF000D960D16841F48061D160D16841F400715C
:100D0000D160DA6842F00202DA60DA6842F0080282
:100D1000DA60DA6822F00402DA6070474FF40062A9
:100D2000C4F20102D1684FF4406321F40041D16064
:100D3000C4F20103D96841F02001D960D16841F4BF
:100D40008061D160D16821F40071D160DA6822F04D
:100D50000202DA60DA6822F00802DA60DA6822F069
:100D60000402DA6070474FF40062C4F20102D168F5
:100D70004FF4406341F40041D160C4F20103D968EB
:100D800041F02001D960D16821F48061D160D1683F
:100D900041F40071D160DA6842F00202DA60DA6888
:100DA00022F00802DA60DA6842F00402DA60704782
:100DB0004FF40062C4F20102D1684FF4406341F481
:100DC0000041D160C4F20103D96841F02001D9602B
:100DD000D16841F48061D160D16841F40071D16083
:100DE000DA6822F00202D9E74FF40062C4F201028D
:100DF000D1684FF4406321F40041D160C4F2010393
:100E0000D96841F02001D960D16841F48061D16096
:100E1000D16821F400714EE74FF40062C4F2010280
:100E2000D1684FF4406341F40041D160C4F2010342
:100E3000D96821F0200136E74FF40062C4F20102C4
:100E4000D1684FF4406341F40041D160C4F2010322
:100E5000D96821F02001D960D16841F48061D16066
:100E6000D16841F40071D160DA6842F0020226E7ED
:100E70004FF40062C4F20102D1684FF4406341F4C0
:100E8000004154E74FF40062C4F20102D1684FF40C
:100E9000406341F40041D160C4F20103D96841F0DC
:100EA0002001D8E708B5FFF78BFB4FF48062C4F24E
:100EB0000102516940F20F0341F001015161C2F298
:100EC00000031A7801321A7008BD00BF08B5FFF799
:100ED00077FB4FF48062C4F20102516940F20E03C5
:100EE00041F002015161C2F200031A7801321A7016
:100EF00008BD00BF08B5FFF763FB4FF48062C4F282
:100F00000102516940F2100341F004015161C2F243
:100F100000031A7801321A7008BD00BF08B5FFF748
:100F20004FFB4FF48062C4F20102516940F2110399
:100F300041F008015161C2F200031A7801321A70BF
:100F400008BD00BF08B5FFF73BFB4FF48062C4F259
:100F50000102516940F2120341F010015161C2F2E5
:100F600000031A7801321A7008BD00BF4FF4805296
:100F7000C4F2020291694FF4006341F00401C4F22B
:100F8000010391611A6822F00F021A601A6842F098
:100F900002021A60DA6842F00102DA601A6822F48A
:100FA00070621A601A6842F400721A60DA6842F0DD
:100FB0000402DA601A6822F470421A601A6842F475
:100FC00000521A60DA6842F00802DA601A6822F405
:100FD00070221A601A6842F400321A60DA6842F02D
:100FE0001002DA601A6822F470021A601A6842F479
:100FF00000121A60DA6842F02002DA601A6822F001
:1010000070621A601A6842F000721A60DA6842F080
:101010004002DA601A6822F070421A601A6842F0E0
:1010200000521A60DA6842F08002DA605A6822F0F0
:101030000F025A605A6842F002025A60DA6842F4BB
:101040008072DA605A6822F0F0025A605A6842F000
:1010500020025A60DA6842F40072DA605A6822F4B8
:1010600070625A605A6842F400725A60DA6842F458
:101070008062DA605A6822F470425A605A6842F418
:1010800000525A60DA6842F40062DA605A6822F468
:1010900070225A605A6842F400325A60DA6842F4A8
:1010A0008052DA605A6822F070425A605A6842F000
:1010B00000525A60DA6842F40042DA60704700BFBA
:1010C0004FF48052C4F202029369002143F00103FD
:1010D0009361C4F2010148684FF4406340F000702E
:1010E00048609169C4F2010341F0080191611A68F6
:1010F00022F00F021A601A6842F002021A60DA68DF
:1011000042F00102DA601A6822F0F0021A601A68EE
:1011100042F020021A60DA6842F00202DA601A68CD
:1011200022F470621A601A6842F400721A60DA6877
:1011300042F00402DA601A6822F470421A601A68F7
:1011400042F400521A60DA6842F00802DA601A6863
:1011500022F470221A601A6842F400321A60DA68C7
:1011600042F01002DA601A6822F470021A601A68FB
:1011700042F400121A60DA6842F02002DA601A685B
:1011800022F070621A601A6842F000721A60DA681F
:1011900042F04002DA601A6822F070421A601A685F
:1011A00042F000521A60DA6842F08002DA605A684F
:1011B00022F00F025A605A6842F002025A60DA685E
:1011C00042F48072DA605A6822F0F0025A605A687B
:1011D00042F020025A60DA6842F40072DA605A681B
:1011E00022F470625A605A6842F400725A60DA68F7
:1011F00042F48062DA605A6822F470425A605A6897
:1012000042F400525A60DA6842F40062DA605A68C6
:1012100022F470225A605A6842F400325A60DA6846
:1012200042F48052DA605A6822F470025A605A68B6
:1012300042F400125A60DA6842F40052DA605A68E6
:1012400022F070625A605A6842F000725A60DA689E
:1012500042F48042DA605A6822F070425A605A685A
:1012600042F000525A60DA6842F40042DA60704795
:1012700008B54FF48053C4F202031A68194642F0CD
:1012800001021A600A684FF480539207C4F2020305
:10129000F8D55A6822F003025A605A685A605A68B0
:1012A00022F0F0025A605A6842F090025A60FFF74A
:1012B00007FFFFF75BFEFFF769F84FF41050C4F229
:1012C0000100012100F036FA00F09CF8FEF794FFCF
:1012D000FEE700BFFEE700BF1049114B10B5994271
:1012E0000BD2C843C01820F003000E4C043000237A
:1012F0001A595A5004338342FAD10B480B494FF024
:1013000000028842B8BF40F8042BFFF6FAAF00F0A5
:101310000FF8BDE81040FFF7ABBF00BF0000002092
:1013200004000020901D0008040000204C00002054
:101330004FF48053C4F202031968002241F0010106
:1013400019605968CFF6FF020A405A601A680021F6
:1013500022F0847222F480321A601A6882B022F479
:1013600080221A6058681A4620F4FE0058604FF434
:101370001F009860D96200910191196841F4803191
:10138000196003E0009BB3F5A06F09D0136803F464
:1013900000330193009B01330093019B002BF1D09C
:1013A0004FF48053C4F202031B6813F4003308BFE8
:1013B000019301D001230193019B012B08D04FF42D
:1013C0006D43CEF200034FF000629A6002B07047A6
:1013D0004FF48053C4F2020359681A4659605968A1
:1013E000596059685960596821F00301596059687A
:1013F00041F001015960536803F00C03042BFAD14A
:10140000DDE700BF4FF48051C4F2020110B4CC6993
:101410004FF080430022632044F00104CC619A84A1
:101420001A829A801A80188598851A884FF461412B
:1014300022F010021204120C1A801A88CEF2000157
:1014400022F002021204120C1A801A8822F440724E
:101450001204120C1A801A8822F080021204120C54
:101460001A801A8822F008021204120C1A809A8933
:1014700092B242F001029A811A8892B242F00402BA
:101480001A809A8A22F001021204120C9A821A8897
:1014900092B242F001021A804FF080530B6010BCF0
:1014A000704700BF4FF080431A8A70B5D10705D549
:1014B0001A8A22F001021204120C1A824FF4105000
:1014C000534C0121C4F2010000F034F923885A067C
:1014D00002D00133238070BDFEF7CEFF00285FD01D
:1014E0004C4E44F207533568CCF22E23A3FB051370
:1014F0004FF4A3411B0CC0F20101421E01FB135328
:10150000032A70D8DFE802F04E515B023B2B0FD963
:101510004BF2C532C9F2A212A2FB03124FF4616171
:10152000D20A01FB12323B2A88BFA3F13C0101D849
:1015300003F6D45148F68902C8F68802A2FB0102DC
:101540005209C2EB021292009A4251D044F207555E
:10155000CCF22E25A5FB02154FF4A3432D0CC0F2AF
:10156000010303FB1525012000F046FB00F0E8FB1A
:10157000284600F0BBFB356000F0E2FB002000F0E5
:101580003BFB254DFEF7CEFDA878FFF76FFBE87813
:10159000FFF750FA2879FFF731F96879FFF712F869
:1015A000238896E703F56162CEE7B3F5616F36BF36
:1015B00003F5A132A3F5616202F5B872C4E74BF2FC
:1015C000C532C9F2A212A2FB03024FF46161D20A32
:1015D00001FB123140F6D352914294BF03F13C011A
:1015E000A3F6D451A6E7022801D91946A2E71A4664
:1015F00044F20755CCF22E25A5FB02354FF4A34348
:101600002D0CC0F2010303FB15259542ABD1B8E7C1
:1016100014000020080000201800002040F0BF60E7
:101620004FF46D4340F40030CEF20003D8607047B1
:10163000C37830B47BB90378012103F01F0201FAAB
:1016400002F15A094FF46143CEF20003203243F80D
:10165000221030BC70474FF46D43CEF20003DB68BC
:101660004478DB43C3F302230F22C3F1040122FABF
:1016700003F304FA01F48578017803EA05022243B2
:1016800001F160431201D2B203F5614383F80023F4
:101690000278012102F01F0301FA03F14FF46143C4
:1016A000CEF20003520943F82210D2E742680B68D9
:1016B00022F4702270B422F480720C79134343EA4E
:1016C0000423436086688C68CA684FF2FD73CFF6C6
:1016D000F1734D7922433340134343EA450383605A
:1016E0000B7CC26A013B22F47002DBB242EA035374
:1016F000C36270BC704700BF836819B923F001034F
:101700008360704743F0010383607047836843F050
:1017100008038360704700BF8068C0F3C000704753
:10172000836843F004038360704700BF8068C0F3A0
:1017300080007047836819B923F4A0038360704761
:1017400043F4A00383607047092970B401EB41049E
:101750001ED91E3C072606FA04F603FA04F4C568EF
:10176000062A25EA060343EA0403C3601DD90C2AAE
:1017700002EB820227D9413A1F2404FA02F401FA4B
:1017800002F1C36A23EA04020A43C26270BC7047D2
:10179000072606FA04F603FA04F40569062A25EA80
:1017A000060343EA04030361E1D8013A02EB820233
:1017B0001F2404FA02F401FA02F1436B23EA040243
:1017C0000A434263E2E7233A1F2404FA02F401FACF
:1017D00002F1036B23EA04020A430263D6E700BF67
:1017E000C06C80B2704700BF6FEA11210160704782
:1017F0004FF40643C4F20D23186070474FF4D843EA
:10180000C4F200039A8E92B242F001029A867047A7
:101810004FF4D843C4F200039A8E92B242F002020F
:101820009A867047CA7830B4D30648BF8B7802F0E6
:101830000F0448BF1C430B8813F0FF0F3CD0482A0D
:10184000016800F0A480282A00F0098113F0010F3C
:101850001CBF21F00F01214313F0020F1CBF21F028
:10186000F00141EA041113F0040F1CBF21F4706170
:1018700041EA042113F0080F1CBF21F4704141EA32
:10188000043113F0100F1CBF21F4702141EA044110
:1018900013F0200F1CBF21F4700141EA045113F032
:1018A000400F1CBF21F0706141EA046113F0800F0A
:1018B00018BF64F31F710160FF2B33D9482A4168B8
:1018C00032D0282A00F09A80DA0544BF21F00F01B7
:1018D00021439A0544BF21F0F00141EA04115A0561
:1018E00044BF21F4706141EA04211A0544BF21F488
:1018F000704141EA0431DA0444BF21F4702141EA25
:1019000004419A0444BF21F4700141EA04515A048D
:1019100044BF21F0706141EA04611B0448BF64F3D5
:101920001F71416030BC704703F4807292B2002A8C
:1019300040F0CE8003F4007292B2002A40F0C280E0
:1019400003F4806292B2002A40F0D98003F400626E
:1019500092B2002A40F0CD8003F4805292B2002A65
:1019600040F0C18003F4005292B2002A40F0B580EA
:1019700003F4804292B2002A40F0C78003F400438F
:101980009BB2002BCDD064F31F710361C9E713F044
:10199000010518BF056103F0020518BF21F00F0112
:1019A000ADB218BF2143002D40F0208103F00405A3
:1019B000ADB2002D40F0148103F00805ADB2002D4A
:1019C00040F0088103F01005ADB2002D40F0FC801E
:1019D00003F02005ADB2002D40F0F08003F040058B
:1019E000ADB2002D40F0E48003F08005ADB2002DD3
:1019F0003FF461AF64F31F7105615CE703F480722B
:101A000092B2002A40F0AB8003F4007292B2002A36
:101A100040F09F8003F4806292B2002A40F09380ED
:101A200003F4006292B2002A40F0878003F48052EF
:101A300092B2002A7BD103F4005292B2002A70D1F4
:101A400003F4804292B2002A65D103F400439BB2B2
:101A5000002B3FF466AF64F31F71436161E713F03D
:101A6000010518BF456103F0020518BF21F00F0101
:101A7000ADB218BF2143002D40F08E8003F0040565
:101A8000ADB2002D40F0828003F00805ADB2002D0C
:101A900076D103F01005ADB2002D6BD103F0200517
:101AA000ADB2002D60D103F04005ADB2002D79D16B
:101AB00003F08005ADB2002D3FF4FDAE64F31F715D
:101AC0004561F8E621F0F00141EA0411026137E7CF
:101AD00021F00F01214302612CE721F4700141EA5A
:101AE0000451026144E721F4702141EA044102619A
:101AF00038E721F4704141EA043102612CE721F416
:101B0000706141EA0421026120E721F0706141EA3D
:101B10000461026132E721F0706141EA04614261CF
:101B200093E721F4700141EA0451426188E721F40E
:101B3000702141EA044142617DE721F4704141EAAC
:101B40000431426172E721F4706141EA042142618B
:101B500066E721F0F00141EA041142615AE721F001
:101B60000F01214342614FE721F4700141EA045122
:101B7000456198E721F4702141EA044145618DE710
:101B800021F4704141EA0431456182E721F470613A
:101B900041EA0421456177E721F0F00141EA0411AF
:101BA00045616BE721F0706141EA046145617FE7BF
:101BB00021F0706141EA0461056115E721F47001CB
:101BC00041EA0451056109E721F4702141EA044129
:101BD0000561FDE621F4704141EA04310561F1E659
:101BE00021F4706141EA04210561E5E621F0F0018C
:101BF00041EA04110561D9E62023C4F20E231860DE
:101C0000704700BF4FF48053C4F202035A6822F4B5
:101C100040421043586070474FF481530022C4F291
:101C2000020301281A701A7004D0042801D1052279
:101C30001A707047187070474FF48053C4F2020353
:101C40001A6A10431862704740F23C43C4F24223C0
:101C5000186070474FF48053C4F202039A6919B9AF
:101C600022EA00009861704710439861704700BFF6
:101C70004FF48053C4F20203DA6919B922EA000072
:101C8000D86170471043D861704700BF4309012BEA
:101C90000ED0022B4FF48053C4F202030CBF1B6A18
:101CA0005B6A00F01F0023FA00F000F001007047AB
:101CB0004FF48053C4F202031B68F2E74FF4205341
:101CC000C4F200031A8892B219B922EA00001880FF
:101CD00070471043188070474FF42053C4F200033C
:101CE0009A8B188B93B243EA004070474FF420530D
:101CF000C4F200039A88010C92B242F0100280B242
:101D00009A80198398839A8822F010021204120C88
:101D10009A8070474FF42053C4F200039A88C0F3AE
:101D2000034192B242F0100280B29A8019819881E8
:101D30009A8822F010021204120C9A80704700BF99
:101D40004FF42052C4F20002938803F020039BB2A8
:101D5000002BF9D0704700BF4FF42051C4F20001AE
:101D60008B880A4623F008031B041B0C8B80938886
:101D700003F008039BB2002BF9D070474FF42053B7
:101D8000C4F200039A8892B222EA00009880704759
:041D9000010000103E
:00000001FF
