:020000040800F2
:10000000540500205D570008DD570008E957000837
:10001000F1570008F95700080158000800000000D7
:100020000000000000000000000000000958000867
:100030001558000800000000215800082D5800083D
:10004000CD570008CD570008590A00089D0B00083D
:10005000CD570008CD5700089D230008CD57000854
:10006000CD570008CD570008CD570008CD570008E0
:10007000CD570008CD570008CD570008CD570008D0
:10008000CD570008CD570008CD57000800000000EC
:10009000000000000000000000000000CD57000834
:1000A000CD570008CD570008CD570008CD570008A0
:1000B00071310008CD570008CD570008CD57000812
:1000C000CD570008CD570008CD570008CD57000880
:1000D000CD5700081D330008CD570008CD57000844
:1000E000CD570008CD570008CD570008000000008C
:1000F0000000000000000000000000000000000000
:1001000000000000000000000000000000000000EF
:100110000000000000000000CD570008CD57000887
:100120005FF808F180B483B000AF786040F22D032F
:10013000C2F200034FF000021A7023E040F22D03D8
:10014000C2F200031B787A68D3181B78392B09D8C0
:1001500040F22D03C2F200031B787A68D3181B7893
:100160002F2B02D84FF0000399E040F22D03C2F28A
:1001700000031B7803F10103DAB240F22D03C2F24F
:1001800000031A7040F22D03C2F200031B78052B06
:10019000D4D97B681B781A464FEA8202D3184FEAFB
:1001A0004303DAB27B6803F101031B78D318DAB298
:1001B00040F24C13C2F20003DB78DBB2D318DBB29F
:1001C000A3F11003DBB2DAB240F24C13C2F2000327
:1001D0001A7040F24C13C2F200031B785BB2172B6B
:1001E0000EDD40F24C13C2F200031B78DBB2A3F128
:1001F0001803DBB2DAB240F24C13C2F200031A70F9
:1002000040F24C13C2F200031B785BB2002B0EDAF3
:1002100040F24C13C2F200031B78DBB203F1180367
:10022000DBB2DAB240F24C13C2F200031A707B6800
:1002300003F102031B781A464FEA8202D3184FEAF1
:100240004303DAB27B6803F103031B78D318DBB2F4
:10025000A3F11003DBB2DAB240F24C13C2F2000396
:100260005A707B6803F104031B781A464FEA820236
:10027000D3184FEA4303DAB27B6803F105031B7816
:10028000D318DBB2A3F11003DBB2DAB240F24C13A5
:10029000C2F200039A7040F24C13C2F200031846F7
:1002A00007F10C07BD4680BC704700BF80B582B027
:1002B00000AF40F24C03C2F200033B6040F22C035B
:1002C000C2F200034FF000021A7040F24C03C2F277
:1002D00000031B78472B40F08F8040F24C03C2F2A2
:1002E00000035B78502B40F0878040F24C03C2F251
:1002F00000039B78472B7FD140F24C03C2F20003EE
:10030000DB784C2B78D140F24C03C2F200031B790E
:100310004C2B71D14FF00503FB714FF00003BB7103
:1003200067E0FA7940F24C03C2F200039B5C2C2B8D
:1003300003D1BB7903F10103BB7197F90630052B9B
:1003400053D1FB7903F1010240F24C03C2F20003E6
:100350009B5C2C2B08D140F22E03C2F200034FF01D
:1003600000021A703B6848E0FB79142B07D940F271
:100370002E03C2F200034FF002021A7006E040F2B0
:100380002E03C2F200034FF001021A70FB7903F151
:10039000010240F24C03C2F20003D3183B603868FC
:1003A000FFF7C0FE40F22E03C2F200031B78012BC0
:1003B00019D140F24C13C2F200031B78D9B240F2BB
:1003C0004C13C2F200035B78DAB240F24C13C2F273
:1003D00000039B78DBB2084611461A4640F22D53C3
:1003E000C0F6000398473B6807E0FB7903F101037F
:1003F000FB71FB79FF2B94D13B68184607F1080786
:10040000BD4680BD80B483B000AF0346FB714FF49E
:100410006143CEF2000397F907204FEA5212F979AF
:1004200001F01F014FF0010000FA01F102F160023A
:1004300043F8221007F10C07BD4680BC704700BF8F
:1004400080B582B000AF4FF4C06043F26963C0F67C
:10045000000398474FF003033B714FF001037B719A
:100460004FF00003BB714FF00103FB7107F1040370
:10047000184643F29163C0F6000398474FF0C0500E
:100480004FF0010144F2AD73C0F6000398474FF0FE
:10049000010043F6F953C0F6000398474FF00100FE
:1004A00044F26D43C0F60003984700BF4FF041008F
:1004B00044F60913C0F6000398470346002BF5D015
:1004C0004FF4807044F2ED43C0F6000398474FF0BC
:1004D000010044F21953C0F60003984744F615434F
:1004E000C0F60003984744F6F533C0F6000398477A
:1004F0004FF001004FF0010144F61D23C0F6000348
:10050000984744F6F533C0F60003984747F6FF7066
:1005100044F63D33C0F60003984744F6F533C0F681
:100520000003984707F10807BD4680BD80B584B039
:1005300000AF13460246FA710A46BA717B71FB7925
:100540004FF4616202FB03F1BA7913464FEA0313D9
:100550009B1A4FEA8303CA187B79D318FB604FF0CC
:10056000010043F6F953C0F60003984744F6F5330B
:10057000C0F600039847F86844F60533C0F6000358
:10058000984740F23003C2F20003FA681A6044F65A
:10059000F533C0F6000398474FF0000043F6F953D7
:1005A000C0F60003984707F11007BD4680BD00BFA5
:1005B00080B500AF40F23403C2F200031B78012B78
:1005C00006D14FF0010043F68903C0F600039847B7
:1005D00040F23803C2F200031B78002B06D04FF024
:1005E000010043F68903C0F60003984780BD00BFB1
:1005F00080B400AFBD4680BC704700BF80B487B0F8
:1006000000AF13460246FA800A467A713B717B7945
:10061000022B07D87B7903F10C037B71FB8803F174
:10062000FF33FB807B7903F1010213464FEA43035A
:100630009B184FEA43031A4646F26763C6F26663A5
:1006400083FB02134FEAA3014FEAE273CB1AFB824A
:10065000FB884FEA9303BB82FA8848F21F53C5F226
:10066000EB13A3FB02134FEA53137B82FA8848F281
:100670001F53C5F2EB13A3FB02134FEAD3133B82C4
:100680003B799AB27B799BB24FEA43039BB2D31872
:100690009AB2FB8AD3189AB2FB88D3189AB2BB8A53
:1006A000D3189AB27B8AD31A9AB23B8AD3189BB2D8
:1006B00003F10103FB81FA8944F62513C2F2924348
:1006C000A3FB0213D11A4FEA51015B184FEA9301C1
:1006D0000B464FEAC3035B1AD31AFB81FB8918460A
:1006E00007F11C07BD4680BC704700BF80B483B0D3
:1006F00000AF40F23003C2F200031A6844F207531D
:10070000CCF22E23A3FB02134FEA13414FF4A34371
:10071000C0F2010303FB01F3D31A7B607A684BF24A
:10072000C533C9F2A213A3FB02134FEAD323DAB2F3
:100730004CF6CD43CCF6CC43A3FB02134FEAD303D4
:10074000DAB240F25013C2F200035A717A684BF2E7
:10075000C533C9F2A213A3FB02134FEAD323DAB2C3
:100760004CF6CD43CCF6CC43A3FB02134FEAD301A6
:100770000B464FEA83035B184FEA4303D31ADAB2FE
:1007800040F25013C2F200031A7179684BF2C5337C
:10079000C9F2A213A3FB01234FEAD3224FF46163F2
:1007A00003FB02F3CA1A48F68903C8F68803A3FBC1
:1007B00002134FEA5313DAB24CF6CD43CCF6CC43D6
:1007C000A3FB02134FEAD303DAB240F25013C2F292
:1007D0000003DA7079684BF2C533C9F2A213A3FBA8
:1007E00001234FEAD3224FF4616303FB02F3CA1AD9
:1007F00048F68903C8F68803A3FB02134FEA531394
:10080000DAB24CF6CD43CCF6CC43A3FB02134FEA4D
:10081000D3010B464FEA83035B184FEA4303D31A15
:10082000DAB240F25013C2F200039A707A684BF2C7
:10083000C533C9F2A213A3FB02134FEAD3214FF42D
:10084000616303FB01F3D11A48F68903C8F68803F4
:10085000A3FB01234FEA531213464FEA03139B1ADB
:100860004FEA8303CA1AD2B24CF6CD43CCF6CC433E
:10087000A3FB02134FEAD303DAB240F25013C2F2E1
:1008800000035A707A684BF2C533C9F2A213A3FB76
:1008900002134FEAD3214FF4616303FB01F3D11A32
:1008A00048F68903C8F68803A3FB01234FEA5312D5
:1008B00013464FEA03139B1A4FEA8303CA1AD2B2B4
:1008C0004CF6CD43CCF6CC43A3FB02134FEAD30145
:1008D0000B464FEA83035B184FEA4303D31ADAB29D
:1008E00040F25013C2F200031A7007F10C07BD4624
:1008F00080BC704780B582B000AF4FF002033B71FF
:100900004FF001037B714FF00003BB714FF0010307
:10091000FB7107F10403184643F29163C0F600032C
:10092000984707F10807BD4680BD00BF80B584B079
:1009300000AF43F63D23C0F6000398474FF4A06094
:1009400043F26963C0F6000398474FF003033B731B
:100950004FF000037B734FF00003BB734FF00103B4
:10096000FB7307F10C03184643F29163C0F60003D2
:1009700098474FF4003043F6DD43C0F60003984734
:100980004FF000033B724FF400337B604FF00803DD
:100990007B724FF00103BB7207F10403184643F664
:1009A0009123C0F6000398474FF029033B734FF0A3
:1009B00001037B734FF00103BB734FF00103FB7323
:1009C00007F10C03184643F29163C0F60003984701
:1009D0004FF4803043F6DD43C0F6000398474FF0F4
:1009E00000033B724FF480337B604FF008037B724F
:1009F0004FF00103BB7207F10403184643F691233D
:100A0000C0F6000398474FF001033B734FF000031B
:100A10007B734FF00003BB7307F10C03184643F2DE
:100A20009163C0F6000398474FF01C033B734FF0EF
:100A300000037B734FF00103BB734FF00103FB73A3
:100A400007F10C03184643F29163C0F60003984780
:100A500007F11007BD4680BD80B500AF4FF0000024
:100A600043F68903C0F60003984740F23403C2F20C
:100A700000034FF001021A7043F61523C0F600037D
:100A8000984743F6D513C0F6000398474FF002008D
:100A9000FFF7B8FC80BD00BF80B582B000AF4FF457
:100AA000C06043F26963C0F6000398474FF0030348
:100AB0003B714FF001037B714FF00003BB714FF0AE
:100AC0000103FB7107F10403184643F29163C0F67A
:100AD000000398474FF0C0504FF0010144F2AD734E
:100AE000C0F6000398474FF0010043F6F953C0F6F3
:100AF000000398474FF0010044F26D43C0F6000335
:100B0000984700BF4FF0410044F60913C0F60003B8
:100B100098470346002BF5D04FF4807044F2ED4324
:100B2000C0F6000398474FF0010044F21953C0F695
:100B30000003984744F61543C0F6000398474FF06A
:100B400001004FF0010144F61D23C0F60003984751
:100B50004FF4D843C4F200034FF4D842C4F2000269
:100B6000928D92B242F0190292B29A8547F6FF70C6
:100B700044F63D33C0F60003984744F6F533C0F61B
:100B8000000398474FF0000043F6F953C0F6000306
:100B9000984707F10807BD4680BD00BF80B500AF8C
:100BA0004FF0010044F62D53C0F60003984740F281
:100BB0003903C2F200031B78002B18D140F239032D
:100BC000C2F200031B7803F10103DAB240F23903E9
:100BD000C2F200031A7044F6CD23C0F60003984712
:100BE000024640F23003C2F200031A600BE040F20A
:100BF0003003C2F200031B6803F1010240F230032C
:100C0000C2F200031A60FFF771FD40F25013C2F206
:100C100000039B78184641F6C963C0F60003984765
:100C200040F25013C2F20003DB78184641F2D97348
:100C3000C0F60003984740F25013C2F200031B793C
:100C4000184641F2E903C0F60003984740F25013FA
:100C5000C2F200035B79184640F6B543C0F60003C4
:100C6000984740F22E03C2F200031B78022B0CD1EE
:100C700048F29413C4F2212348F29412C4F22122C0
:100C800012686FEA02021A6006E048F29413C4F296
:100C900021234FF001021A6040F20003C2F2000368
:100CA0001B7803F10103DAB240F20003C2F2000341
:100CB0001A7080BD80B483B000AF0346FB71FB792E
:100CC000092B00F20B8201A252F823F0F50C000868
:100CD000590D0008BD0D0008210E0008850E000802
:100CE000E90E00084D0F0008B10F000815100008AC
:100CF0007910000848F28413C4F221234FF0010256
:100D00001A6048F28013C4F221234FF001021A60E6
:100D10004FF4CE73C4F221234FF001021A604FF456
:100D2000CC73C4F221234FF001021A604FF4CA734E
:100D3000C4F221234FF001021A604FF4C873C4F2C9
:100D400021234FF001021A604FF4C673C4F221232D
:100D50004FF000021A60C1E148F28413C4F221236B
:100D60004FF000021A6048F28013C4F221234FF0C2
:100D700001021A604FF4CE73C4F221234FF0010236
:100D80001A604FF4CC73C4F221234FF000021A60B2
:100D90004FF4CA73C4F221234FF000021A604FF4DB
:100DA000C873C4F221234FF000021A604FF4C673D7
:100DB000C4F221234FF000021A608FE148F284133D
:100DC000C4F221234FF001021A6048F28013C4F2EA
:100DD00021234FF001021A604FF4CE73C4F2212395
:100DE0004FF000021A604FF4CC73C4F221234FF08D
:100DF00001021A604FF4CA73C4F221234FF00102BA
:100E00001A604FF4C873C4F221234FF000021A6035
:100E10004FF4C673C4F221234FF001021A605DE162
:100E200048F28413C4F221234FF001021A6048F201
:100E30008013C4F221234FF001021A604FF4CE73E5
:100E4000C4F221234FF001021A604FF4CC73C4F2B4
:100E500021234FF001021A604FF4CA73C4F2212318
:100E60004FF000021A604FF4C873C4F221234FF010
:100E700000021A604FF4C673C4F221234FF001023E
:100E80001A602BE148F28413C4F221234FF00002D0
:100E90001A6048F28013C4F221234FF001021A6055
:100EA0004FF4CE73C4F221234FF001021A604FF4C5
:100EB000CC73C4F221234FF000021A604FF4CA73BE
:100EC000C4F221234FF000021A604FF4C873C4F239
:100ED00021234FF001021A604FF4C673C4F221239C
:100EE0004FF001021A60F9E048F28413C4F22123A2
:100EF0004FF001021A6048F28013C4F221234FF030
:100F000000021A604FF4CE73C4F221234FF00102A5
:100F10001A604FF4CC73C4F221234FF001021A601F
:100F20004FF4CA73C4F221234FF000021A604FF449
:100F3000C873C4F221234FF001021A604FF4C67344
:100F4000C4F221234FF001021A60C7E048F2841373
:100F5000C4F221234FF001021A6048F28013C4F258
:100F600021234FF000021A604FF4CE73C4F2212304
:100F70004FF001021A604FF4CC73C4F221234FF0FA
:100F800001021A604FF4CA73C4F221234FF0010228
:100F90001A604FF4C873C4F221234FF001021A60A3
:100FA0004FF4C673C4F221234FF001021A6095E09A
:100FB00048F28413C4F221234FF001021A6048F270
:100FC0008013C4F221234FF001021A604FF4CE7354
:100FD000C4F221234FF001021A604FF4CC73C4F223
:100FE00021234FF000021A604FF4CA73C4F2212388
:100FF0004FF000021A604FF4C873C4F221234FF07F
:1010000000021A604FF4C673C4F221234FF00002AD
:101010001A6063E048F28413C4F221234FF0010206
:101020001A6048F28013C4F221234FF001021A60C3
:101030004FF4CE73C4F221234FF001021A604FF433
:10104000CC73C4F221234FF001021A604FF4CA732B
:10105000C4F221234FF001021A604FF4C873C4F2A6
:1010600021234FF001021A604FF4C673C4F221230A
:101070004FF001021A6031E048F28413C4F22123D8
:101080004FF001021A6048F28013C4F221234FF09E
:1010900001021A604FF4CE73C4F221234FF0010213
:1010A0001A604FF4CC73C4F221234FF001021A608E
:1010B0004FF4CA73C4F221234FF000021A604FF4B8
:1010C000C873C4F221234FF001021A604FF4C673B3
:1010D000C4F221234FF001021A6000BF07F10C0790
:1010E000BD4680BC704700BF80B483B000AF0346EC
:1010F000FB71FB79092B00F2698301A252F823F0FE
:1011000029110008D31100087D12000827130008D8
:10111000D11300087B14000825150008CF1500081E
:1011200079160008231700084FF40063C4F2010386
:101130004FF40062C4F20102D26842F00202DA60A7
:101140004FF40063C4F201034FF40062C4F20102E1
:10115000D26842F00402DA604FF44063C4F2010343
:101160004FF44062C4F20102D26842F40072DA60C5
:101170004FF44063C4F201034FF44062C4F2010231
:10118000D26842F48072DA604FF44063C4F2010323
:101190004FF44062C4F20102D26842F40062DA60A5
:1011A0004FF44063C4F201034FF44062C4F2010201
:1011B000D26842F48062DA604FF44063C4F2010303
:1011C0004FF44062C4F20102D26822F00402DA60F5
:1011D000FCE24FF40063C4F201034FF40062C4F276
:1011E0000102D26822F00202DA604FF40063C4F216
:1011F00001034FF40062C4F20102D26842F004021B
:10120000DA604FF44063C4F201034FF44062C4F269
:101210000102D26842F40072DA604FF44063C4F213
:1012200001034FF44062C4F20102D26822F48072DA
:10123000DA604FF44063C4F201034FF44062C4F239
:101240000102D26822F40062DA604FF44063C4F213
:1012500001034FF44062C4F20102D26822F48062BA
:10126000DA604FF44063C4F201034FF44062C4F209
:101270000102D26822F00402DA60A7E24FF40063B0
:10128000C4F201034FF40062C4F20102D26842F0DA
:101290000202DA604FF40063C4F201034FF400620B
:1012A000C4F20102D26842F00402DA604FF44063F3
:1012B000C4F201034FF44062C4F20102D26822F486
:1012C0000072DA604FF44063C4F201034FF44062ED
:1012D000C4F20102D26842F48072DA604FF44063D3
:1012E000C4F201034FF44062C4F20102D26842F436
:1012F0000062DA604FF44063C4F201034FF44062CD
:10130000C4F20102D26822F48062DA604FF44063D2
:10131000C4F201034FF44062C4F20102D26842F009
:101320000402DA6052E24FF40063C4F201034FF4A6
:101330000062C4F20102D26842F00202DA604FF4A5
:101340000063C4F201034FF40062C4F20102D268E8
:1013500042F00402DA604FF44063C4F201034FF438
:101360004062C4F20102D26842F40072DA604FF4C3
:101370004063C4F201034FF44062C4F20102D26838
:1013800042F48072DA604FF44063C4F201034FF418
:101390004062C4F20102D26822F40062DA604FF4C3
:1013A0004063C4F201034FF44062C4F20102D26808
:1013B00022F48062DA604FF44063C4F201034FF418
:1013C0004062C4F20102D26842F00402DA60FDE138
:1013D0004FF40063C4F201034FF40062C4F201024F
:1013E000D26822F00202DA604FF40063C4F2010313
:1013F0004FF40062C4F20102D26842F00402DA60E3
:101400004FF44063C4F201034FF44062C4F201029E
:10141000D26842F40072DA604FF44063C4F2010310
:101420004FF44062C4F20102D26822F48072DA60A2
:101430004FF44063C4F201034FF44062C4F201026E
:10144000D26822F40062DA604FF44063C4F2010310
:101450004FF44062C4F20102D26842F48062DA6062
:101460004FF44063C4F201034FF44062C4F201023E
:10147000D26842F00402DA60A8E14FF40063C4F2DB
:1014800001034FF40062C4F20102D26842F002028A
:10149000DA604FF40063C4F201034FF40062C4F257
:1014A0000102D26822F00402DA604FF44063C4F211
:1014B00001034FF44062C4F20102D26842F40072A8
:1014C000DA604FF44063C4F201034FF44062C4F2A7
:1014D0000102D26842F48072DA604FF44063C4F2D1
:1014E00001034FF44062C4F20102D26822F40062A8
:1014F000DA604FF44063C4F201034FF44062C4F277
:101500000102D26842F48062DA604FF44063C4F2B0
:1015100001034FF44062C4F20102D26842F00402B7
:10152000DA6053E14FF40063C4F201034FF4006248
:10153000C4F20102D26842F00202DA604FF40063A2
:10154000C4F201034FF40062C4F20102D26822F037
:101550000402DA604FF44063C4F201034FF44062C6
:10156000C4F20102D26842F40072DA604FF44063C0
:10157000C4F201034FF44062C4F20102D26842F4A3
:101580008072DA604FF44063C4F201034FF44062AA
:10159000C4F20102D26842F40062DA604FF44063A0
:1015A000C4F201034FF44062C4F20102D26842F473
:1015B0008062DA604FF44063C4F201034FF440628A
:1015C000C4F20102D26842F00402DA60FEE04FF495
:1015D0000063C4F201034FF40062C4F20102D26856
:1015E00042F00202DA604FF40063C4F201034FF4E8
:1015F0000062C4F20102D26842F00402DA604FF4E1
:101600004063C4F201034FF44062C4F20102D268A5
:1016100042F40072DA604FF44063C4F201034FF405
:101620004062C4F20102D26822F48072DA604FF4A0
:101630004063C4F201034FF44062C4F20102D26875
:1016400022F40062DA604FF44063C4F201034FF405
:101650004062C4F20102D26822F48062DA604FF480
:101660004063C4F201034FF44062C4F20102D26845
:1016700022F00402DA60A9E04FF40063C4F201032F
:101680004FF40062C4F20102D26842F00202DA6052
:101690004FF40063C4F201034FF40062C4F201028C
:1016A000D26842F00402DA604FF44063C4F20103EE
:1016B0004FF44062C4F20102D26842F40072DA6070
:1016C0004FF44063C4F201034FF44062C4F20102DC
:1016D000D26842F48072DA604FF44063C4F20103CE
:1016E0004FF44062C4F20102D26842F40062DA6050
:1016F0004FF44063C4F201034FF44062C4F20102AC
:10170000D26842F48062DA604FF44063C4F20103AD
:101710004FF44062C4F20102D26842F00402DA607F
:1017200054E04FF40063C4F201034FF40062C4F2CA
:101730000102D26842F00202DA604FF40063C4F2A0
:1017400001034FF40062C4F20102D26842F00402C5
:10175000DA604FF44063C4F201034FF44062C4F214
:101760000102D26842F40072DA604FF44063C4F2BE
:1017700001034FF44062C4F20102D26842F4807265
:10178000DA604FF44063C4F201034FF44062C4F2E4
:101790000102D26822F40062DA604FF44063C4F2BE
:1017A00001034FF44062C4F20102D26842F4806245
:1017B000DA604FF44063C4F201034FF44062C4F2B4
:1017C0000102D26842F00402DA6000BF07F10C07A0
:1017D000BD4680BC704700BF80B483B000AF0346F5
:1017E000FB71FB79092B00F2698301A252F823F007
:1017F00019180008C31800086D190008171A000806
:10180000C11A00086B1B0008151C0008BF1C00084B
:10181000691D0008131E00084FF40063C4F20103A1
:101820004FF40062C4F20102D26842F48072DA60BE
:101830004FF44063C4F201034FF44062C4F201026A
:10184000D26842F40042DA604FF44063C4F201030C
:101850004FF44062C4F20102D26842F48042DA607E
:101860004FF44063C4F201034FF44062C4F201023A
:10187000D26842F40052DA604FF44063C4F20103CC
:101880004FF44062C4F20102D26842F48052DA603E
:101890004FF44063C4F201034FF44062C4F201020A
:1018A000D26842F08002DA604FF40063C4F20103B0
:1018B0004FF40062C4F20102D26822F48042DA607E
:1018C000FCE24FF40063C4F201034FF40062C4F27F
:1018D0000102D26822F48072DA604FF44063C4F2ED
:1018E00001034FF44062C4F20102D26842F40042A4
:1018F000DA604FF44063C4F201034FF44062C4F273
:101900000102D26842F48042DA604FF44063C4F2CC
:1019100001034FF44062C4F20102D26822F4005283
:10192000DA604FF44063C4F201034FF44062C4F242
:101930000102D26822F48052DA604FF44063C4F2AC
:1019400001034FF44062C4F20102D26822F0800227
:10195000DA604FF40063C4F201034FF40062C4F292
:101960000102D26822F48042DA60A7E24FF40063F9
:10197000C4F201034FF40062C4F20102D26842F4DF
:101980008072DA604FF44063C4F201034FF44062A6
:10199000C4F20102D26842F40042DA604FF44063BC
:1019A000C4F201034FF44062C4F20102D26822F48F
:1019B0008042DA604FF44063C4F201034FF44062A6
:1019C000C4F20102D26842F40052DA604FF440637C
:1019D000C4F201034FF44062C4F20102D26842F43F
:1019E0008052DA604FF44063C4F201034FF4406266
:1019F000C4F20102D26822F08002DA604FF4006380
:101A0000C4F201034FF40062C4F20102D26842F44E
:101A10008042DA6052E24FF40063C4F201034FF4F3
:101A20000062C4F20102D26842F48072DA604FF4BC
:101A30004063C4F201034FF44062C4F20102D26871
:101A400042F40042DA604FF44063C4F201034FF401
:101A50004062C4F20102D26842F48042DA604FF47C
:101A60004063C4F201034FF44062C4F20102D26841
:101A700042F40052DA604FF44063C4F201034FF4C1
:101A80004062C4F20102D26822F48052DA604FF45C
:101A90004063C4F201034FF44062C4F20102D26811
:101AA00022F08002DA604FF40063C4F201034FF4C5
:101AB0000062C4F20102D26842F48042DA60FDE1C1
:101AC0004FF40063C4F201034FF40062C4F2010258
:101AD000D26822F48072DA604FF44063C4F20103EA
:101AE0004FF44062C4F20102D26842F40042DA606C
:101AF0004FF44063C4F201034FF44062C4F20102A8
:101B0000D26842F48042DA604FF44063C4F20103C9
:101B10004FF44062C4F20102D26822F40052DA604B
:101B20004FF44063C4F201034FF44062C4F2010277
:101B3000D26822F48052DA604FF44063C4F20103A9
:101B40004FF44062C4F20102D26842F08002DA60CF
:101B50004FF40063C4F201034FF40062C4F20102C7
:101B6000D26842F48042DA60A8E14FF40063C4F224
:101B700001034FF40062C4F20102D26842F48072A1
:101B8000DA604FF44063C4F201034FF44062C4F2E0
:101B90000102D26822F40042DA604FF44063C4F2DA
:101BA00001034FF44062C4F20102D26842F4804261
:101BB000DA604FF44063C4F201034FF44062C4F2B0
:101BC0000102D26842F40052DA604FF44063C4F27A
:101BD00001034FF44062C4F20102D26822F4805241
:101BE000DA604FF44063C4F201034FF44062C4F280
:101BF0000102D26842F08002DA604FF40063C4F25E
:101C000001034FF40062C4F20102D26842F4804240
:101C1000DA6053E14FF40063C4F201034FF4006251
:101C2000C4F20102D26842F48072DA604FF4406379
:101C3000C4F201034FF44062C4F20102D26822F4FC
:101C40000042DA604FF44063C4F201034FF4406293
:101C5000C4F20102D26842F48042DA604FF4406379
:101C6000C4F201034FF44062C4F20102D26842F4AC
:101C70000052DA604FF44063C4F201034FF4406253
:101C8000C4F20102D26842F48052DA604FF4406339
:101C9000C4F201034FF44062C4F20102D26842F080
:101CA0008002DA604FF40063C4F201034FF4006273
:101CB000C4F20102D26842F48042DA60FEE04FF4DE
:101CC0000063C4F201034FF40062C4F20102D2685F
:101CD00042F48072DA604FF44063C4F201034FF4BF
:101CE0004062C4F20102D26842F40042DA604FF46A
:101CF0004063C4F201034FF44062C4F20102D268AF
:101D000042F48042DA604FF44063C4F201034FF4BE
:101D10004062C4F20102D26822F40052DA604FF449
:101D20004063C4F201034FF44062C4F20102D2687E
:101D300022F48052DA604FF44063C4F201034FF49E
:101D40004062C4F20102D26822F08002DA604FF4ED
:101D50000063C4F201034FF40062C4F20102D268CE
:101D600022F48042DA60A9E04FF40063C4F2010378
:101D70004FF40062C4F20102D26842F48072DA6069
:101D80004FF44063C4F201034FF44062C4F2010215
:101D9000D26842F40042DA604FF44063C4F20103B7
:101DA0004FF44062C4F20102D26842F48042DA6029
:101DB0004FF44063C4F201034FF44062C4F20102E5
:101DC000D26842F40052DA604FF44063C4F2010377
:101DD0004FF44062C4F20102D26842F48052DA60E9
:101DE0004FF44063C4F201034FF44062C4F20102B5
:101DF000D26842F08002DA604FF40063C4F201035B
:101E00004FF40062C4F20102D26842F48042DA6008
:101E100054E04FF40063C4F201034FF40062C4F2D3
:101E20000102D26842F48072DA604FF44063C4F277
:101E300001034FF44062C4F20102D26842F400424E
:101E4000DA604FF44063C4F201034FF44062C4F21D
:101E50000102D26842F48042DA604FF44063C4F277
:101E600001034FF44062C4F20102D26842F400520E
:101E7000DA604FF44063C4F201034FF44062C4F2ED
:101E80000102D26822F48052DA604FF44063C4F257
:101E900001034FF44062C4F20102D26842F08002B2
:101EA000DA604FF40063C4F201034FF40062C4F23D
:101EB0000102D26842F48042DA6000BF07F10C07E9
:101EC000BD4680BC704700BF80B483B000AF0346FE
:101ED000FB71FB79092B00F20B8201A252F823F06F
:101EE000091F00086D1F0008D11F000835200008D9
:101EF00099200008FD20000861210008C521000884
:101F0000292200088D22000848F29813C4F22123E8
:101F10004FF001021A6048F29013C4F221234FF0EF
:101F200001021A604FF4DE73C4F221234FF0010264
:101F30001A604FF4DA73C4F221234FF001021A60E1
:101F40004FF4D873C4F221234FF001021A604FF40A
:101F5000D473C4F221234FF001021A604FF4D273FC
:101F6000C4F221234FF000021A60C1E148F2981335
:101F7000C4F221234FF000021A6048F29013C4F219
:101F800021234FF001021A604FF4DE73C4F22123C3
:101F90004FF001021A604FF4DA73C4F221234FF0BC
:101FA00000021A604FF4D873C4F221234FF00002EC
:101FB0001A604FF4D473C4F221234FF000021A6068
:101FC0004FF4D273C4F221234FF000021A608FE164
:101FD00048F29813C4F221234FF001021A6048F22C
:101FE0009013C4F221234FF001021A604FF4DE7304
:101FF000C4F221234FF000021A604FF4DA73C4F2E6
:1020000021234FF001021A604FF4D873C4F2212348
:102010004FF001021A604FF4D473C4F221234FF041
:1020200000021A604FF4D273C4F221234FF0010270
:102030001A605DE148F29813C4F221234FF00102C7
:102040001A6048F29013C4F221234FF001021A6083
:102050004FF4DE73C4F221234FF001021A604FF4F3
:10206000DA73C4F221234FF001021A604FF4D873DF
:10207000C4F221234FF000021A604FF4D473C4F26B
:1020800021234FF000021A604FF4D273C4F22123CF
:102090004FF001021A602BE148F29813C4F2212399
:1020A0004FF000021A6048F29013C4F221234FF05F
:1020B00001021A604FF4DE73C4F221234FF00102D3
:1020C0001A604FF4DA73C4F221234FF000021A6051
:1020D0004FF4D873C4F221234FF000021A604FF47A
:1020E000D473C4F221234FF001021A604FF4D2736B
:1020F000C4F221234FF001021A60F9E048F298136C
:10210000C4F221234FF001021A6048F29013C4F286
:1021100021234FF000021A604FF4DE73C4F2212332
:102120004FF001021A604FF4DA73C4F221234FF02A
:1021300001021A604FF4D873C4F221234FF0000259
:102140001A604FF4D473C4F221234FF001021A60D5
:102150004FF4D273C4F221234FF001021A60C7E09A
:1021600048F29813C4F221234FF001021A6048F29A
:102170009013C4F221234FF000021A604FF4DE7373
:10218000C4F221234FF001021A604FF4DA73C4F253
:1021900021234FF001021A604FF4D873C4F22123B7
:1021A0004FF001021A604FF4D473C4F221234FF0B0
:1021B00001021A604FF4D273C4F221234FF00102DE
:1021C0001A6095E048F29813C4F221234FF00102FF
:1021D0001A6048F29013C4F221234FF001021A60F2
:1021E0004FF4DE73C4F221234FF001021A604FF462
:1021F000DA73C4F221234FF000021A604FF4D8734F
:10220000C4F221234FF000021A604FF4D473C4F2D9
:1022100021234FF000021A604FF4D273C4F221233D
:102220004FF000021A6063E048F29813C4F22123D1
:102230004FF001021A6048F29013C4F221234FF0CC
:1022400001021A604FF4DE73C4F221234FF0010241
:102250001A604FF4DA73C4F221234FF001021A60BE
:102260004FF4D873C4F221234FF001021A604FF4E7
:10227000D473C4F221234FF001021A604FF4D273D9
:10228000C4F221234FF001021A6031E048F29813A2
:10229000C4F221234FF001021A6048F29013C4F2F5
:1022A00021234FF001021A604FF4DE73C4F22123A0
:1022B0004FF001021A604FF4DA73C4F221234FF099
:1022C00001021A604FF4D873C4F221234FF00002C8
:1022D0001A604FF4D473C4F221234FF001021A6044
:1022E0004FF4D273C4F221234FF001021A6000BFF1
:1022F00007F10C07BD4680BC704700BF80B483B0B7
:1023000000AF0346FB714FF46143CEF2000397F92F
:1023100007204FEA5212F97901F01F014FF0010036
:1023200000FA01F143F8221007F10C07BD4680BC0A
:10233000704700BF80B500AF4FF001004FF00101C2
:1023400044F25973C0F6000398474FF00003C4F2FB
:1023500001034FF00002C4F2010292689A604FF448
:102360008063C4F201034FF48062C4F20102126878
:1023700042F001021A604FF48063C4F201034FF48B
:102380008062C4F20102926842F001029A604FF04A
:102390000600FFF7B3FF00BF80BD00BF80B500AFF0
:1023A00040F24C13C2F200031B78D9B240F24C1336
:1023B000C2F200035B78DAB240F24C13C2F20003BF
:1023C0009B78DBB203F10103DBB2084611461A46E3
:1023D00040F22D53C0F6000398474FF48063C4F2D7
:1023E00001034FF48062C4F20102526942F001021B
:1023F0005A6180BD80B500AF4FF001004FF0010180
:1024000044F25973C0F6000398474FF0010043F6B9
:10241000F953C0F6000398474FF0000043F68903D4
:10242000C0F6000398474FF0000043F6F953C0F69A
:10243000000398474FF48053C4F202034FF48052D4
:10244000C4F20202926942F010029A614FF4805382
:10245000C4F201034FF48052C4F20102526822F424
:1024600040125A604FF48053C4F201034FF480527B
:10247000C4F20102526822F440025A604FF48053C1
:10248000C4F201034FF48052C4F20102526842F4D4
:1024900000025A6000BF80BD80B400AF4FF480538B
:1024A000C4F202034FF48052C4F20202926942F075
:1024B00004029A614FF40063C4F201034FF4006216
:1024C000C4F20102126822F003021A604FF40063A2
:1024D000C4F201034FF40062C4F20102126822F058
:1024E0000C021A604FF40063C4F201034FF400625F
:1024F000C4F20102126842F008021A604FF400634D
:10250000C4F201034FF40062C4F20102126822F423
:1025100070621A604FF40063C4F201034FF400626A
:10252000C4F20102126842F400721A604FF40063B0
:10253000C4F201034FF40062C4F20102D26842F017
:102540000402DA604FF40063C4F201034FF4006246
:10255000C4F20102126822F470621A604FF4006340
:10256000C4F201034FF40062C4F20102126842F4A3
:1025700000721A604FF40063C4F201034FF400626A
:10258000C4F20102D26842F00402DA604FF4006340
:10259000C4F201034FF40062C4F20102126822F493
:1025A00070421A604FF40063C4F201034FF40062FA
:1025B000C4F20102126842F400521A604FF4006340
:1025C000C4F201034FF40062C4F20102D26842F087
:1025D0000802DA604FF40063C4F201034FF40062B2
:1025E000C4F20102126822F470221A604FF40063F0
:1025F000C4F201034FF40062C4F20102126842F413
:1026000000321A604FF40063C4F201034FF4006219
:10261000C4F20102D26842F01002DA604FF40063A3
:10262000C4F201034FF40062C4F20102126822F402
:1026300070021A604FF40063C4F201034FF40062A9
:10264000C4F20102126842F400121A604FF40063EF
:10265000C4F201034FF40062C4F20102D26842F0F6
:102660002002DA604FF40063C4F201034FF4006209
:10267000C4F20102126822F070621A604FF4006323
:10268000C4F201034FF40062C4F20102126842F086
:1026900000721A604FF40063C4F201034FF4006249
:1026A000C4F20102D26842F04002DA604FF40063E3
:1026B000C4F201034FF40062C4F20102126822F076
:1026C00070421A604FF40063C4F201034FF40062D9
:1026D000C4F20102126842F000521A604FF4006323
:1026E000C4F201034FF40062C4F20102D26842F066
:1026F0008002DA604FF40063C4F201034FF4006219
:10270000C4F20102526822F00F025A604FF40063D3
:10271000C4F201034FF40062C4F20102526842F0B5
:1027200002025A604FF40063C4F201034FF40062E6
:10273000C4F20102D26842F48072DA604FF400639E
:10274000C4F201034FF40062C4F20102526822F0A5
:10275000F0025A604FF40063C4F201034FF40062C8
:10276000C4F20102526842F020025A604FF4006342
:10277000C4F201034FF40062C4F20102D26842F4D1
:102780000072DA604FF40063C4F201034FF4006298
:10279000C4F20102126822F003021A604FF40063CF
:1027A000C4F201034FF40062C4F20102126822F085
:1027B0000C021A604FF40063C4F201034FF400628C
:1027C000C4F20102126842F008021A604FF400637A
:1027D000C4F201034FF40062C4F20102526822F411
:1027E00070425A604FF40063C4F201034FF4006278
:1027F000C4F20102526842F400525A604FF400637E
:10280000C4F201034FF40062C4F20102D26842F440
:102810000062DA604FF40063C4F201034FF4006217
:10282000C4F20102526822F470225A604FF400632D
:10283000C4F201034FF40062C4F20102526842F490
:1028400000325A604FF40063C4F201034FF4006297
:10285000C4F20102D26842F48052DA604FF400639D
:10286000C4F201034FF40062C4F20102526822F480
:1028700070025A604FF40063C4F201034FF4006227
:10288000C4F20102526842F400125A604FF400632D
:10289000C4F201034FF40062C4F20102D26842F4B0
:1028A0000052DA604FF40063C4F201034FF4006297
:1028B000C4F20102526822F070625A604FF4006361
:1028C000C4F201034FF40062C4F20102526842F004
:1028D00000725A604FF40063C4F201034FF40062C7
:1028E000C4F20102D26842F48042DA604FF400631D
:1028F000C4F201034FF40062C4F20102526822F0F4
:1029000070425A604FF40063C4F201034FF4006256
:10291000C4F20102526842F000525A604FF4006360
:10292000C4F201034FF40062C4F20102D26842F41F
:102930000042DA6000BFBD4680BC704780B400AF83
:102940004FF48053C4F202034FF48052C4F20202E7
:10295000926942F001029A614FF00003C4F2010350
:102960004FF00002C4F20102526842F000725A6055
:102970004FF48053C4F202034FF48052C4F20202B7
:10298000926942F008029A614FF44063C4F2010375
:102990004FF44062C4F20102126822F00F021A6082
:1029A0004FF44063C4F201034FF44062C4F20102E9
:1029B000126842F002021A604FF44063C4F201034D
:1029C0004FF44062C4F20102D26842F00802DA60B9
:1029D0004FF44063C4F201034FF44062C4F20102B9
:1029E000126822F0F0021A604FF44063C4F201034F
:1029F0004FF44062C4F20102126842F020021A60F1
:102A00004FF44063C4F201034FF44062C4F2010288
:102A1000D26842F00202DA604FF44063C4F201036C
:102A20004FF44062C4F20102126822F470621A602C
:102A30004FF44063C4F201034FF44062C4F2010258
:102A4000126842F400721A604FF44063C4F201034A
:102A50004FF44062C4F20102D26842F00402DA602C
:102A60004FF44063C4F201034FF44062C4F2010228
:102A7000126822F440521A604FF44063C4F201031A
:102A80004FF44062C4F20102126822F440421A601C
:102A90004FF44063C4F201034FF44062C4F20102F8
:102AA000126842F400421A604FF44063C4F201031A
:102AB0004FF44062C4F20102126822F470221A60DC
:102AC0004FF44063C4F201034FF44062C4F20102C8
:102AD000126842F400321A604FF44063C4F20103FA
:102AE0004FF44062C4F20102D26842F01002DA6090
:102AF0004FF44063C4F201034FF44062C4F2010298
:102B0000126822F470021A604FF44063C4F20103A9
:102B10004FF44062C4F20102126842F400121A60DB
:102B20004FF44063C4F201034FF44062C4F2010267
:102B3000D26842F02002DA604FF44063C4F201032D
:102B40004FF44062C4F20102126822F070621A600F
:102B50004FF44063C4F201034FF44062C4F2010237
:102B6000126842F000721A604FF44063C4F201032D
:102B70004FF44062C4F20102D26842F04002DA60CF
:102B80004FF44063C4F201034FF44062C4F2010207
:102B9000126822F070421A604FF44063C4F20103DD
:102BA0004FF44062C4F20102126842F000521A600F
:102BB0004FF44063C4F201034FF44062C4F20102D7
:102BC000D26842F08002DA604FF44063C4F201033D
:102BD0004FF44062C4F20102526822F00F025A60C0
:102BE0004FF44063C4F201034FF44062C4F20102A7
:102BF000526842F002025A604FF44063C4F201038B
:102C00004FF44062C4F20102D26842F48072DA608A
:102C10004FF44063C4F201034FF44062C4F2010276
:102C2000526822F0F0025A604FF44063C4F201038C
:102C30004FF44062C4F20102526842F020025A602E
:102C40004FF44063C4F201034FF44062C4F2010246
:102C5000D26842F40072DA604FF44063C4F20103B8
:102C60004FF44062C4F20102526822F470625A606A
:102C70004FF44063C4F201034FF44062C4F2010216
:102C8000526842F400725A604FF44063C4F2010388
:102C90004FF44062C4F20102D26842F48062DA600A
:102CA0004FF44063C4F201034FF44062C4F20102E6
:102CB000526822F470425A604FF44063C4F2010338
:102CC0004FF44062C4F20102526842F400525A606A
:102CD0004FF44063C4F201034FF44062C4F20102B6
:102CE000D26842F40062DA604FF44063C4F2010338
:102CF0004FF44062C4F20102526822F470225A601A
:102D00004FF44063C4F201034FF44062C4F2010285
:102D1000526842F400325A604FF44063C4F2010337
:102D20004FF44062C4F20102D26842F48052DA6089
:102D30004FF44063C4F201034FF44062C4F2010255
:102D4000526822F470025A604FF44063C4F20103E7
:102D50004FF44062C4F20102526842F400125A6019
:102D60004FF44063C4F201034FF44062C4F2010225
:102D7000D26842F40052DA604FF44063C4F20103B7
:102D80004FF44062C4F20102526822F070625A604D
:102D90004FF44063C4F201034FF44062C4F20102F5
:102DA000526842F000725A604FF44063C4F201036B
:102DB0004FF44062C4F20102D26842F48042DA6009
:102DC0004FF44063C4F201034FF44062C4F20102C5
:102DD000526822F070425A604FF44063C4F201031B
:102DE0004FF44062C4F20102526842F000525A604D
:102DF0004FF44063C4F201034FF44062C4F2010295
:102E0000D26842F40042DA6000BFBD4680BC704721
:102E100080B500AF4FF48053C4F202034FF48052E8
:102E2000C4F20202126842F480321A6000BF4FF40A
:102E30008053C4F202031B6803F40033002BF6D066
:102E40004FF48053C4F202034FF48052C4F20202E2
:102E5000526822F003025A604FF48053C4F2020316
:102E60004FF48052C4F20202526842F001025A60EA
:102E70004FF48053C4F202034FF48052C4F20202B2
:102E8000526822F0F0025A6040F24C13C2F2000382
:102E90004FF0FD02DA7042F2F533C0F600039847B6
:102EA00042F63D13C0F60003984742F29943C0F63C
:102EB0000003984740F69923C0F60003984742F272
:102EC0003533C0F60003984743F23123C0F60003C0
:102ED000984743F22D43C0F60003984700E000BF37
:102EE00040F22C03C2F200031B78002BF7D040F213
:102EF000AD23C0F600039847F1E700BF80B483B06C
:102F000000AF0346FB714FF46143CEF2000397F923
:102F100007204FEA5212F97901F01F014FF001002A
:102F200000FA01F143F8221007F10C07BD4680BCFE
:102F3000704700BF80B500AF45F2555043F6FD43E2
:102F4000C0F6000398474FF0030043F61D53C0F648
:102F50000003984740F2E73043F63D53C0F60003C4
:102F6000984743F65D53C0F60003984743F6755300
:102F7000C0F60003984780BD80B582B000AF03461D
:102F8000FB80FB88184600F059F800BF40F23C0374
:102F9000C2F200031B78002BF8D007F10807BD46EA
:102FA00080BD00BF80B500AF4FF48053C4F2020370
:102FB0004FF48052C4F20202D26942F00402DA6194
:102FC0004FF40063C4F200034FF40062C4F2000245
:102FD000128892B222F0010292B21A804FF400637A
:102FE000C4F200034FF0F9021A854FF40063C4F2F3
:102FF000000340F26C729A854FF40063C4F2000340
:103000004FF40062C4F20002128892B222F0010270
:1030100092B21A804FF40063C4F200034FF40062CE
:10302000C4F20002928992B242F0010292B29A81F5
:103030004FF01E00FFF762FF80BD00BF80B582B079
:1030400000AF0346FB804FF48053C4F202034FF4F9
:103050008052C4F20202D26942F00102DA614FF0FA
:1030600080434FF000029A844FF080434FF00002FB
:103070001A824FF080434FF000029A804FF0804355
:103080004FF000021A804FF08043FA8802F1FF32BD
:1030900092B21A854FF0804341F63F729A854FF005
:1030A00080434FF08042128892B222F0100292B216
:1030B0001A804FF080434FF08042128892B222F083
:1030C000020292B21A804FF080434FF08042128881
:1030D00092B222F4407292B21A804FF080434FF0C5
:1030E0008042128892B222F0800292B21A804FF08F
:1030F00080434FF08042128892B242F0080292B2AE
:103100001A804FF080434FF08042928992B242F091
:10311000010292B29A814FF080434FF080421288B0
:1031200092B242F0040292B21A804FF080434FF004
:103130008042928A92B222F0010292B29A824FF0B9
:1031400080434FF08042128892B242F0010292B264
:103150001A804FF01C00FFF7D1FE40F23C03C2F290
:1031600000034FF000021A7007F10807BD4680BD4A
:1031700080B400AF4FF080431B8A9BB203F0010381
:10318000002B09D04FF080434FF08042128A92B258
:1031900022F0010292B21A8240F23C03C2F2000312
:1031A0004FF001021A704FF080434FF08042928935
:1031B00092B222F0010292B29A814FF080434FF016
:1031C0008042128892B222F0010292B21A80BD4669
:1031D00080BC704780B485B000AF78604FF00003CA
:1031E000FB6017E000BF4FF46053C4F201031B887B
:1031F0009BB203F08003002BF5D04FF46053C4F270
:1032000001037968FA688A1812789A80FB6803F1DA
:103210000103FB607A68FB68D3181B78002BE1D1AF
:103220004FF00003184607F11407BD4680BC7047F5
:1032300080B582B000AF4FF48053C4F202034FF464
:103240008052C4F20202926942F004029A614FF481
:103250008053C4F202034FF48052C4F20202926916
:1032600042F001029A614FF48053C4F202034FF41A
:103270008052C4F20202926942F480429A614FF491
:103280006053C4F201034FF46052C4F20102928908
:1032900092B242F0040292B29A814FF46053C4F2A7
:1032A000010340F241321A814FF46053C4F201032A
:1032B00042F204029A814FF46050C4F201004FF0D0
:1032C000010145F2F903C0F6000398474FF460503E
:1032D000C4F2010040F225514FF0010245F23913CA
:1032E000C0F6000398474FF025033B714FF00103F0
:1032F0007B714FF00003BB714FF00103FB7107F1CD
:103300000403184643F29163C0F6000398474FF058
:103310000003184607F10807BD4680BD80B500AF21
:103320004FF46050C4F2010040F2277145F255633A
:10333000C0F6000398470346002B0BD040F2400331
:10334000C2F200031B6803F1010240F24003C2F223
:1033500000031A604FF46050C4F2010040F225519E
:1033600045F25563C0F6000398470346002B5CD036
:103370004FF46050C4F2010045F27533C0F600030B
:1033800098470346DAB240F24403C2F200031A70CF
:1033900040F24403C2F200031B78242B0ED140F20A
:1033A0004803C2F200034FF000021A6040F22C03FF
:1033B000C2F200034FF001021A7028E040F2480305
:1033C000C2F200031A6840F24403C2F20003197803
:1033D00040F24C03C2F20003995440F24803C2F297
:1033E00000031B6803F1010240F24803C2F200032C
:1033F0001A6040F24803C2F200031B68FE2B06DD90
:1034000040F24803C2F200034FF000021A604FF48A
:103410006053C4F201034FF46052C4F201021288F7
:1034200092B222F0200292B21A8080BD80B582B0A2
:1034300000AF4FF49A73C4F222231B68002B40F0B4
:10344000C8804FF4CC73C4F221234FF001021A60FC
:103450004FF4CA73C4F221234FF001021A604FF4F3
:10346000C873C4F221234FF001021A6040F24C13DA
:10347000C2F20003DB785BB2002B43DA4FF4406307
:10348000C4F201034FF44062C4F20102D26842F078
:103490000402DA6040F24C13C2F20003DB78DBB2C4
:1034A000C3F10003DAB24CF6CD43CCF6CC43A3FB18
:1034B00002134FEAD303DBB2184641F2D973C0F6C8
:1034C0000003984740F24C13C2F20003DB78DBB2F2
:1034D000C3F10003DAB24CF6CD43CCF6CC43A3FBE8
:1034E00002134FEAD3010B464FEA83035B184FEAFE
:1034F0004303D31ADBB2184641F6C963C0F6000392
:10350000984744E04FF44063C4F201034FF4406233
:10351000C4F20102D26822F00402DA6040F24C13D5
:10352000C2F20003DB785AB246F26763C6F2666302
:1035300083FB02134FEAA3014FEAE273CB1ADBB21B
:10354000DBB2184641F2D973C0F60003984740F247
:103550004C13C2F20003DB785AB246F26763C6F23C
:10356000666383FB02134FEAA3014FEAE273C91AB1
:103570000B464FEA83035B184FEA4303D31ADBB2CF
:10358000DBB2184641F6C963C0F600039847FB79E1
:10359000012B0ED940F24C13C2F20003DB78DBB2F0
:1035A00003F10103DBB2DAB240F24C13C2F20003C2
:1035B000DA7040F24C13C2F20003DB785BB20D2BE1
:1035C00048D140F24C13C2F200034FF0F402DA701B
:1035D00040E04FF47A7042F67973C0F600039847E2
:1035E0004FF0080040F6B543C0F6000398474FF48B
:1035F0007A7042F67973C0F6000398474FF00800DE
:1036000041F2E903C0F6000398474FF47A7042F69E
:103610007973C0F6000398474FF0080041F2D97360
:10362000C0F6000398474FF47A7042F67973C0F6FB
:10363000000398474FF0080041F6C963C0F6000345
:1036400098474FF47A7042F67973C0F600039847B2
:1036500000BF04E0FB7903F10103FB71E9E607F128
:103660000807BD4680BD00BF80B483B000AF78605E
:103670004FF46D43CEF200037A6842F0BF6242F429
:103680000032DA6007F10C07BD4680BC704700BF0E
:1036900080B487B000AF78604FF000037B614FF0DB
:1036A00000033B614FF00F03FB607B68DB78002B6E
:1036B00047D04FF46D43CEF20003DB686FEA03039B
:1036C00003F4E0634FEA13237B617B69C3F10403D6
:1036D0003B617B69FA6822FA03F3FB607B685B78E5
:1036E0001A463B6902FA03F37B617B689B781A46B2
:1036F000FB6813407A6913437B617B694FEA0313CC
:103700007B614FF46143CEF200037A681278114670
:103710007A69D2B25B1883F800234FF46143CEF28A
:1037200000037A6812784FEA5212D2B279680978A7
:1037300001F01F014FF0010000FA01F143F82210DF
:1037400014E04FF46143CEF200037A6812784FEA36
:103750005212D2B27968097801F01F014FF00100CE
:1037600000FA01F102F1200243F8221007F11C07D0
:10377000BD4680BC704700BF80B483B000AF7860A6
:1037800039604FF46D43CEF200033A6822F0604294
:1037900022F07F0279680A439A6007F10C07BD4660
:1037A00080BC704780B483B000AF02460B46FA710C
:1037B000BB71BB79002B0CD04FF46D43CEF20003EC
:1037C0004FF46D42CEF200021169FA790A431A6190
:1037D0000DE04FF46D43CEF200034FF46D42CEF294
:1037E00000021169FA796FEA02020A401A6107F1D0
:1037F0000C07BD4680BC704780B483B000AF7860D2
:103800007B68042B0CD14EF21003CEF200034EF273
:103810001002CEF20002126842F004021A600BE0BD
:103820004EF21003CEF200034EF21002CEF200026E
:10383000126822F004021A6007F10C07BD4680BC32
:10384000704700BF80B500AF4FF0010044F6A903F8
:10385000C0F6000398474FF0000044F6A903C0F6F5
:103860000003984780BD00BF80B483B000AF03461B
:10387000FB8048F20463C4F20D23FA881A6007F152
:103880000C07BD4680BC704780B483B000AF0346D0
:10389000FB714FF40643C4F20D23FA791A6007F165
:1038A0000C07BD4680BC704780B483B000AF0346B0
:1038B000FB7148F28863C4F20D23FA791A6007F1AC
:1038C0000C07BD4680BC704780B485B000AF03468E
:1038D000FB804FF00003FB814FF4D843C4F2000398
:1038E0009B8DFB81FB8923F46073FB81FA89FB8844
:1038F0001343FB814FF4D843C4F20003FA899A853D
:1039000007F11407BD4680BC704700BF80B485B086
:1039100000AF0346FB714FF00003FB814FF4D84327
:10392000C4F200039B8DFB81FB8923F07F03FB81A5
:10393000FB799AB2FB891343FB814FF4D843C4F25D
:103940000003FA899A8507F11407BD4680BC7047C9
:1039500080B485B000AF02460B46FA80BB804FF0C2
:103960000003FB604FF4D843C4F20003FB60FA8805
:10397000FB68D318FB60FB68BA881A6007F114076C
:10398000BD4680BC704700BF80B485B000AF034621
:10399000FB804FF00003FB604FF4D843C4F20003F8
:1039A000FB60FA88FB68D318FB60FB681B889BB23E
:1039B000184607F11407BD4680BC704780B400AFBD
:1039C00048F2A063C4F20D231B68DBB21846BD4663
:1039D00080BC704780B400AF4FF4D843C4F20003FA
:1039E0004FF4D842C4F20002928E92B242F0010229
:1039F00092B29A86BD4680BC704700BF80B400AFCB
:103A000048F2A463C4F20D231B68DBB21846BD461E
:103A100080BC704780B400AF4FF4D843C4F20003B9
:103A20004FF4D842C4F20002928E92B242F00202E7
:103A300092B29A86BD4680BC704700BF80B400AF8A
:103A40004FF48063C4F201034FF000021A604FF498
:103A50008063C4F201034FF000025A604FF48063A8
:103A6000C4F201034FF000029A604FF48063C4F285
:103A700001034FF00002DA604FF48063C4F20103E7
:103A80004FF6FF72C0F20F025A61BD4680BC70470C
:103A900080B485B000AF78604FF00003FB604FF456
:103AA0008063C4F20103FB607B689B79002B78D0B4
:103AB0004FF48063C4F201034FF48062C4F2010248
:103AC00011687A6812686FEA02020A401A604FF4BD
:103AD0008063C4F201034FF48062C4F201025168B2
:103AE0007A6812686FEA02020A405A607B681B79A2
:103AF000FA68D318FB60FB68FA6811687A68126884
:103B00000A431A604FF48063C4F201034FF48062E9
:103B1000C4F2010291687A6812686FEA02020A40F0
:103B20009A604FF48063C4F201034FF48062C4F2E0
:103B30000102D1687A6812686FEA02020A40DA600C
:103B40007B685B79102B1AD14FF48063C4F20103B8
:103B50004FF48062C4F2010291687A6812680A43E5
:103B60009A604FF48063C4F201034FF48062C4F2A0
:103B70000102D1687A6812680A43DA601FE04FF4E4
:103B80008063C4F20103FB607B685B79FA68D31839
:103B9000FB60FB68FA6811687A6812680A431A6069
:103BA0000DE07B681B79FA68D318FB60FB68FA6844
:103BB00011687A6812686FEA02020A401A6007F117
:103BC0001407BD4680BC704780B483B000AF7860F6
:103BD0007B684FF000021A607B684FF000021A7198
:103BE0007B684FF00C025A717B684FF000029A71AB
:103BF00007F10C07BD4680BC704700BF80B483B09E
:103C000000AF78604FF48063C4F201034FF4806228
:103C1000C4F2010211697A680A431A6107F10C07BC
:103C2000BD4680BC704700BF80B485B000AF7860EF
:103C30004FF00003FB734FF48063C4F201035A6931
:103C40007B681340002B03D04FF00103FB7302E0AD
:103C50004FF00003FB73FB7B184607F11407BD46CA
:103C600080BC704780B483B000AF78604FF480634D
:103C7000C4F201037A685A6107F10C07BD4680BCA3
:103C8000704700BF80B485B000AF78604FF000038C
:103C9000FB734FF00003BB604FF48063C4F2010379
:103CA0001A687B681340BB604FF48063C4F2010361
:103CB0005A697B681340002B06D0BB68002B03D0E9
:103CC0004FF00103FB7302E04FF00003FB73FB7B3B
:103CD000184607F11407BD4680BC704780B483B016
:103CE00000AF78604FF48063C4F201037A685A61D0
:103CF00007F10C07BD4680BC704700BF80B483B09D
:103D000000AF0346FB804FF44053C4F20003FA882F
:103D10001A6007F10C07BD4680BC704780B483B0C1
:103D200000AF0346FB714FF44053C4F20003FA792D
:103D30005A6007F10C07BD4680BC704780B483B061
:103D400000AF0346FB804FF44053C4F20003FA88EF
:103D50009A6007F10C07BD4680BC704780B400AF85
:103D60004FF44053C4F200034AF6AA221A60BD463B
:103D700080BC704780B400AF4FF44053C4F20003DE
:103D80004CF6CC421A60BD4680BC704780B485B00A
:103D900000AF0346FB804FF00003FB734FF440532A
:103DA000C4F20003DA68FB881340002B03D04FF005
:103DB0000103FB7302E04FF00003FB73FB7B18462B
:103DC00007F11407BD4680BC704700BF80B500AF47
:103DD0004FF080504FF0010144F65503C0F6000348
:103DE00098474FF080504FF0000144F65503C0F65D
:103DF0000003984780BD00BF80B483B000AF034686
:103E0000FB714FF02003C4F20E23FA791A6007F118
:103E10000C07BD4680BC704780B483B000AF03463A
:103E2000FB714FF01003C4F20E23FA791A6007F108
:103E30000C07BD4680BC704780B485B000AF786089
:103E40004FF00003FB604FF4E043C4F200031B6833
:103E5000FB60FB6823F0E003FB60FA687B681343B8
:103E6000FB604FF4E043C4F20003FA681A6007F104
:103E70001407BD4680BC704780B483B000AF0346D2
:103E8000FB714FF0A003C4F20E23FA791A6007F118
:103E90000C07BD4680BC704780B485B000AF786029
:103EA0000B46FB704FF00003FB604FF4E043C4F29D
:103EB00000031B68FB60FB6823F00303FB60FA68E8
:103EC0007B681343FB604FF4E043C4F20003FA68DD
:103ED0001A604FF46D43CEF200034FF46D42CEF200
:103EE0000002126942F004021A61FB78012B01D131
:103EF00030BF00E020BF4FF46D43CEF200034FF41B
:103F00006D42CEF20002126922F004021A6107F13A
:103F10001407BD4680BC704780B400AF4FF4E04347
:103F2000C4F200034FF4E042C4F20002126842F00F
:103F300004021A604FF4E043C4F200034FF4E0427D
:103F4000C4F20002126842F002021A604FF46D439C
:103F5000CEF200034FF46D42CEF20002126942F03D
:103F600004021A6130BFBD4680BC704780B485B082
:103F700000AF78604FF00003FB734FF4E043C4F2EE
:103F800000035A687B681340002B03D04FF00103F5
:103F9000FB7302E04FF00003FB73FB7B184607F155
:103FA0001407BD4680BC704780B483B000AF786012
:103FB0004FF4E043C4F200034FF4E042C4F20002C5
:103FC00011687A684FEA82020A431A6007F10C0707
:103FD000BD4680BC704700BF80B400AF4FF4805333
:103FE000C4F202034FF48052C4F20202126842F09B
:103FF00001021A604FF48052C4F202024FF480535F
:10400000C4F2020359684FF00003CFF6FF030B40E0
:1040100053604FF48053C4F202034FF48052C4F251
:104020000202126822F0847222F480321A604FF485
:104030008053C4F202034FF48052C4F202021268A9
:1040400022F480221A604FF48053C4F202034FF42A
:104050008052C4F20202526822F4FE025A604FF407
:104060008053C4F202034FF41F029A604FF480534E
:10407000C4F202034FF00002DA62BD4680BC704712
:1040800080B483B000AF78604FF48053C4F2020371
:104090004FF48052C4F20202126822F480321A6095
:1040A0004FF48053C4F202034FF48052C4F2020270
:1040B000126822F480221A607B68B3F5803F03D037
:1040C000B3F5802F0DD019E04FF48053C4F20203F2
:1040D0004FF48052C4F20202126842F480321A6035
:1040E0000DE04FF48053C4F202034FF48052C4F247
:1040F0000202126842F4A0221A6000E000BF07F139
:104100000C07BD4680BC704780B582B000AF4FF051
:1041100000033B604FF00003FB714FF00003BB71E5
:104120004FF0310000F0F0FB0346BB713B6803F138
:1041300001033B603B68B3F5A06F02D0BB79002B55
:10414000EED04FF0310000F0DFFB0346002B03D030
:104150004FF00103FB7102E04FF00003FB71FB79AC
:10416000184607F10807BD4680BD00BF80B485B082
:1041700000AF0346FB714FF00003FB604FF4805328
:10418000C4F202031B68FB60FB6823F0F803FB60CA
:10419000FB794FEAC303FA681343FB604FF4805383
:1041A000C4F20203FA681A6007F11407BD4680BC26
:1041B000704700BF80B483B000AF0346FB714FF07F
:1041C0000003C4F24223FA791A6007F10C07BD46D6
:1041D00080BC704780B485B000AF786039604FF024
:1041E0000003FB604FF48053C4F202035B68FB6082
:1041F000FB6823F47413FB607A683B681343FA6826
:104200001343FB604FF48053C4F20203FA685A6010
:1042100007F11407BD4680BC704700BF80B483B06F
:1042200000AF0346FB714FF06003C4F24223FA79FA
:104230001A6007F10C07BD4680BC704780B485B09A
:1042400000AF786039604FF00003FB604FF480539B
:10425000C4F20203DB6AFB60FB6823F4803323F0C3
:104260000F03FB607A683B681343FA681343FB60F3
:104270004FF48053C4F20203FA68DA6207F11407BC
:10428000BD4680BC704700BF80B485B000AF786089
:104290004FF00003FB604FF48053C4F202035B68ED
:1042A000FB60FB6823F00303FB60FA687B68134341
:1042B000FB604FF48053C4F20203FA685A6007F1BE
:1042C0001407BD4680BC704780B400AF4FF48053E4
:1042D000C4F202035B68DBB203F00C03DBB21846E6
:1042E000BD4680BC704700BF80B485B000AF786029
:1042F0004FF00003FB604FF48053C4F202035B688D
:10430000FB60FB6823F0F003FB60FA687B681343F3
:10431000FB604FF48053C4F20203FA685A6007F15D
:104320001407BD4680BC704780B485B000AF78608C
:104330004FF00003FB604FF48053C4F202035B684C
:10434000FB60FB6823F4E063FB60FA687B6813435F
:10435000FB604FF48053C4F20203FA685A6007F11D
:104360001407BD4680BC704780B485B000AF78604C
:104370004FF00003FB604FF48053C4F202035B680C
:10438000FB60FB6823F46053FB607B684FEAC30368
:10439000FA681343FB604FF48053C4F20203FA68D7
:1043A0005A6007F11407BD4680BC704780B483B0E3
:1043B00000AF02460B46FA71BB71BB79002B0ED0E1
:1043C00041F20903C4F2020341F20902C4F20202FB
:1043D0001278D1B2FA790A43D2B21A7010E041F2DF
:1043E0000903C4F2020341F20902C4F20202127884
:1043F000D1B2FA796FEA0202D2B20A40D2B21A708E
:1044000007F10C07BD4680BC704700BF80B483B085
:1044100000AF78604FF0D803C4F242237A681A6084
:1044200007F10C07BD4680BC704700BF80B485B063
:1044300000AF78604FF00003FB604FF48053C4F28C
:1044400002035B68FB60FB6823F44043FB60FA688F
:104450007B681343FB604FF48053C4F20203FA6895
:104460005A6007F11407BD4680BC704780B483B022
:1044700000AF0346FB714FF48153C4F202034FF0C7
:1044800000021A704FF48153C4F202034FF000028D
:104490001A70FB79012B02D0042B08D00FE04FF4E7
:1044A0008153C4F202034FF001021A7008E04FF486
:1044B0008153C4F202034FF005021A7000E000BFFE
:1044C00007F10C07BD4680BC704700BF80B483B0C5
:1044D00000AF0346FB714FF49063C4F24223FA79B4
:1044E0001A6007F10C07BD4680BC704780B483B0EA
:1044F00000AF78604FF48053C4F202034FF480524F
:10450000C4F20202116A7A680A431A6207F10C07C0
:10451000BD4680BC704700BF80B483B000AF034687
:10452000FB7140F23C43C4F24223FA791A6007F16E
:104530000C07BD4680BC704780B489B000AF78607E
:104540004FF00003FB614FF00003BB614FF000032D
:104550007B614FF000033B614FF00003FB604FF4C1
:104560008053C4F202035B6803F00C03FB61FB6938
:10457000042B0AD0082B0FD0002B47D17A684FF4B8
:104580009053C0F27A03136047E07A684FF4905377
:10459000C0F27A03136040E04FF48053C4F2020388
:1045A0005B6803F47013BB614FF48053C4F20203E1
:1045B0005B6803F480337B61BB694FEA934303F18B
:1045C0000203BB617B69002B09D1BA694FF4106308
:1045D000C0F23D0303FB02F27B681A601DE04FF45A
:1045E0008053C4F20203DB6A03F00F0303F10103FB
:1045F000FB604FF49053C0F27A03FA68B3FBF2F316
:10460000BA6902FB03F27B681A6006E07A684FF42D
:104610009053C0F27A03136000BF4FF48053C4F28A
:1046200002035B6803F0F003FB61FB694FEA1313BD
:10463000FB6140F20403C2F20003FA699B181B7885
:10464000DBB23B617B681A683B6922FA03F27B6844
:104650005A604FF48053C4F202035B6803F4E063D2
:10466000FB61FB694FEA1323FB6140F20403C2F2D2
:104670000003FA699B181B78DBB23B617B685A68C0
:104680003B6922FA03F27B689A604FF48053C4F2CC
:1046900002035B6803F46053FB61FB694FEAD323B9
:1046A000FB6140F20403C2F20003FA699B181B7815
:1046B000DBB23B617B685A683B6922FA03F27B6894
:1046C000DA604FF48053C4F202035B6803F44043A2
:1046D000FB61FB694FEA9333FB6140F21403C2F2C2
:1046E0000003FA699B181B78DBB23B617B68DA68D0
:1046F0003B69B2FBF3F27B681A6107F12407BD4600
:1047000080BC704780B483B000AF78600B46FB700C
:10471000FB78002B0CD04FF48053C4F202034FF40B
:104720008052C4F2020251697A680A435A610DE06C
:104730004FF48053C4F202034FF48052C4F20202D9
:1047400051697A686FEA02020A405A6107F10C0760
:10475000BD4680BC704700BF80B483B000AF7860B6
:104760000B46FB70FB78002B0CD04FF48053C4F247
:1047700002034FF48052C4F2020291697A680A433C
:104780009A610DE04FF48053C4F202034FF480525B
:10479000C4F2020291697A686FEA02020A409A61E1
:1047A00007F10C07BD4680BC704700BF80B483B0E2
:1047B00000AF78600B46FB70FB78002B0CD04FF4F9
:1047C0008053C4F202034FF48052C4F20202D16952
:1047D0007A680A43DA610DE04FF48053C4F20203B1
:1047E0004FF48052C4F20202D1697A686FEA020281
:1047F0000A40DA6107F10C07BD4680BC704700BF74
:1048000080B483B000AF78600B46FB70FB78002B60
:104810000CD04FF48053C4F202034FF48052C4F220
:104820000202D1687A680A43DA600DE04FF48053DF
:10483000C4F202034FF48052C4F20202D1687A68D3
:104840006FEA02020A40DA6007F10C07BD4680BC3D
:10485000704700BF80B483B000AF78600B46FB7038
:10486000FB78002B0CD04FF48053C4F202034FF4BA
:104870008052C4F2020211697A680A431A610DE09B
:104880004FF48053C4F202034FF48052C4F2020288
:1048900011697A686FEA02020A401A6107F10C078F
:1048A000BD4680BC704700BF80B483B000AF0346F4
:1048B000FB714FF48863C4F24223FA791A6007F15E
:1048C0000C07BD4680BC704780B483B000AF034680
:1048D000FB714FF04C03C4F24223FA791A6007F1DE
:1048E0000C07BD4680BC704780B483B000AF034660
:1048F000FB7141F20703C4F20203FA791A7007F15F
:104900000C07BD4680BC704780B487B000AF03463B
:10491000FB714FF00003FB604FF000037B614FF031
:104920000003FB74FB794FEA5313DBB2FB60FB68B7
:10493000012B06D14FF48053C4F202031B687B6144
:104940000FE0FB68022B06D14FF48053C4F2020340
:104950001B6A7B6105E04FF48053C4F202035B6A7B
:104960007B61FB7903F01F03FB60FB687A6922FA25
:1049700003F303F00103002B03D04FF00103FB749A
:1049800002E04FF00003FB74FB7C184607F11C07A4
:10499000BD4680BC704700BF80B400AF4FF4805369
:1049A000C4F202034FF48052C4F20202526A42F08F
:1049B00080725A62BD4680BC704700BF80B485B02B
:1049C00000AF0346FB714FF00003FB734FF48053BD
:1049D000C4F202039A68FB791340002B03D04FF016
:1049E0000103FB7302E04FF00003FB73FB7B1846EF
:1049F00007F11407BD4680BC704700BF80B483B088
:104A000000AF0346FB7141F20A03C4F20203FA79D4
:104A10001A7007F10C07BD4680BC704780B483B0A4
:104A200000AF02460B46FA807B717B79002B0ED0DB
:104A30004FF42053C4F200034FF42052C4F200029A
:104A4000128891B2FA880A4392B21A8010E04FF4A9
:104A50002053C4F200034FF42052C4F20002128823
:104A600091B2FA886FEA020292B20A4092B21A80B8
:104A700007F10C07BD4680BC704700BF80B400AF93
:104A80004FF42053C4F200034FF42052C4F200024A
:104A9000928892B242F0100292B29A80BD4680BCD7
:104AA000704700BF80B400AF4FF42053C4F200033E
:104AB0004FF42052C4F20002928892B222F0100207
:104AC00092B29A80BD4680BC704700BF80B483B06C
:104AD00000AF4FF00003FB804FF42053C4F20003FB
:104AE0009B8BFB804FF42053C4F200031B8B9BB2C3
:104AF0004FEA0342FB881343184607F10C07BD46F3
:104B000080BC704780B582B000AF7860FFF7B6FF19
:104B10004FF42053C4F200037A684FEA124292B273
:104B20001A834FF42053C4F200037A6892B29A8336
:104B3000FFF7B8FF07F10807BD4680BD80B582B01A
:104B400000AF7860FFF79AFF4FF42053C4F20003E0
:104B50007A6802F470224FEA124292B21A814FF43C
:104B60002053C4F200037A6892B29A81FFF79AFF49
:104B700007F10807BD4680BD80B582B000AF786000
:104B8000FFF77CFF4FF42053C4F200037A684FEA2A
:104B9000124292B21A844FF42053C4F200037A688E
:104BA00092B29A84FFF77EFF07F10807BD4680BDE9
:104BB00080B483B000AF4FF000037B604FF420530C
:104BC000C4F200031B8A9BB203F00F034FEA0343B6
:104BD0007B604FF42053C4F200039B8A9BB27A6837
:104BE00013437B607B68184607F10C07BD4680BC09
:104BF000704700BF80B400AF00BF4FF42053C4F231
:104C000000039B889BB203F02003002BF5D0BD4628
:104C100080BC704780B400AF4FF42053C4F200034F
:104C20004FF42052C4F20002928892B222F008029D
:104C300092B29A8000BF4FF42053C4F200039B88C5
:104C40009BB203F00803002BF5D0BD4680BC704733
:104C500080B485B000AF0346FB804FF00003FB73C8
:104C60004FF42053C4F200039B889AB2FB88134090
:104C70009BB2002B03D04FF00103FB7302E04FF017
:104C80000003FB73FB7B184607F11407BD4680BC8D
:104C9000704700BF80B483B000AF0346FB804FF481
:104CA0002053C4F200034FF42052C4F20002928851
:104CB00091B2FA886FEA020292B20A4092B29A80E6
:104CC00007F10C07BD4680BC704700BF80B485B0BB
:104CD00000AF0346FB804FF00003FB734FF42053FB
:104CE000C4F200039B889BB2DAB2FB88DBB21340AC
:104CF000FB734FF42053C4F200031B889AB2FB8865
:104D000013409BB2002B06D0FB7B002B03D04FF04F
:104D10000103FB7302E04FF00003FB73FB7B1846BB
:104D200007F11407BD4680BC704700BF80B483B054
:104D300000AF0346FB804FF42053C4F200034FF44E
:104D40002052C4F20002928891B2FA886FEA0202FD
:104D500092B20A4092B29A8007F10C07BD4680BC1D
:104D6000704700BF80B582B000AF78607A684FF4BA
:104D70006053C4F201039A4212D14FF480404FF0C5
:104D8000010144F60103C0F6000398474FF4804048
:104D90004FF0000144F60103C0F60003984766E0B7
:104DA0007A684FF48843C4F200039A4212D14FF458
:104DB00000304FF0010144F65503C0F60003984758
:104DC0004FF400304FF0000144F65503C0F60003E5
:104DD00098474CE07A684FF49043C4F200039A423B
:104DE00012D14FF480204FF0010144F65503C0F674
:104DF000000398474FF480204FF0000144F655031C
:104E0000C0F60003984732E07A684FF49843C4F242
:104E100000039A4212D14FF400204FF0010144F6F2
:104E20005503C0F6000398474FF400204FF00001EF
:104E300044F65503C0F60003984718E07A684FF42B
:104E4000A043C4F200039A4211D14FF480104FF0F6
:104E5000010144F65503C0F6000398474FF4801053
:104E60004FF0000144F65503C0F60003984707F1E0
:104E70000807BD4680BD00BF80B58CB000AF78602C
:104E800039604FF00003FB624FF00003BB624FF04C
:104E900000037B624FF000033B624FF00003FB61B5
:104EA0007B68FB617B681B8A9BB2FB62FA6A4CF6EB
:104EB000FF731340FB623B68DB88FA6A1343FB62B3
:104EC000FB6A9AB27B681A827B689B899BB2FB6201
:104ED000FA6A4EF6F3131340FB623B689A883B680C
:104EE0001B8913439AB23B685B8913439BB2FA6AEE
:104EF0001343FB62FB6A9AB27B689A817B689B8A48
:104F00009BB2FB62FA6A4FF6FF431340FB623B68B9
:104F10009B89FA6A1343FB62FB6A9AB27B689A82A6
:104F200007F10803184644F23953C0F600039847C6
:104F3000FA694FF46053C4F201039A4202D17B69CB
:104F4000BB6201E03B69BB627B689B899BB29BB201
:104F50001BB2002B0FDABA6A13464FEA83039B1881
:104F60004FEA83029A183B681B684FEA4303B2FB7F
:104F7000F3F37B620EE0BA6A13464FEA83039B1891
:104F80004FEA83029A183B681B684FEA8303B2FB1F
:104F9000F3F37B627A6A48F21F53C5F2EB13A3FB6B
:104FA00002134FEA53134FEA0313FB62FB6A4FEA03
:104FB00013134FF0640202FB03F37A6AD31A3B62C5
:104FC0007B689B899BB29BB21BB2002B12DA3B6AB7
:104FD0004FEAC30303F1320248F21F53C5F2EB1349
:104FE000A3FB02134FEA531303F00703FA6A1343B8
:104FF000FB6211E03B6A4FEA031303F1320248F20D
:105000001F53C5F2EB13A3FB02134FEA531303F034
:105010000F03FA6A1343FB62FB6A9AB27B681A8138
:1050200007F13007BD4680BD80B483B000AF786023
:105030007B684FF416521A607B684FF000029A802A
:105040007B684FF00002DA807B684FF000021A8123
:105050007B684FF00C025A817B684FF000029A8106
:1050600007F10C07BD4680BC704700BF80B485B017
:1050700000AF786039604FF00003FB607B681B8AEB
:105080009BB2FB60FA684FF2FF031340FB603B6882
:105090001A883B685B8813439AB23B689B8813432A
:1050A0009AB23B68DB8813439BB2FA681343FB60F8
:1050B000FB689AB27B681A8207F11407BD4680BC70
:1050C000704700BF80B483B000AF78607B684FF05A
:1050D00000021A807B684FF000025A807B684FF014
:1050E00000029A807B684FF00002DA8007F10C071B
:1050F000BD4680BC704700BF80B483B000AF78600D
:105100000B46FB70FB78002B08D07B689B899BB219
:1051100043F400539AB27B689A8107E07B689B89CD
:105120009BB223F400539AB27B689A8107F10C0773
:10513000BD4680BC704700BF80B487B000AF7860C8
:1051400013460A467A807B704FF000033B614FF0B4
:105150000003FB604FF00003BB604FF000037B6176
:105160007B687B617B88DBB24FEA5313DBB23B6128
:105170007B8803F01F03FB60FB684FF0010202FA1B
:1051800003F3BB603B69012B04D17B6903F10C0382
:105190007B610BE03B69022B04D17B6903F11003B7
:1051A0007B6103E07B6903F114037B617B78002B57
:1051B00006D07B697A691168BA680A431A6007E009
:1051C0007B697A691168BA686FEA02020A401A605C
:1051D00007F11C07BD4680BC704700BF80B483B098
:1051E00000AF786013460A467A807B707B78002B8C
:1051F00008D07B689B8A9AB27B8813439AB27B68FB
:105200009A820AE07B689B8A9AB27B886FEA0303E2
:105210009BB213409AB27B689A8207F10C07BD4695
:1052200080BC704780B483B000AF78600B46FB70E1
:105230007B681B8A9BB223F00F039AB27B681A82A9
:105240007B681B8A9AB2FB789BB213439AB27B6845
:105250001A8207F10C07BD4680BC704780B483B04A
:1052600000AF78600B467B807B689B899BB223F400
:1052700000639AB27B689A817B689B899AB27B882B
:1052800013439AB27B689A8107F10C07BD4680BC34
:10529000704700BF80B483B000AF78600B46FB70EE
:1052A000FB78002B08D07B689B899BB243F00203FC
:1052B0009AB27B689A8107E07B689B899BB223F056
:1052C00002039AB27B689A8107F10C07BD4680BC45
:1052D000704700BF80B483B000AF78600B467B801E
:1052E0007B681B8A9BB223F020039AB27B681A82E8
:1052F0007B681B8A9AB27B8813439AB27B681A82B6
:1053000007F10C07BD4680BC704700BF80B483B076
:1053100000AF78600B46FB70FB78002B08D07B68F1
:105320001B8A9BB243F480439AB27B681A8207E0DF
:105330007B681B8A9BB223F480439AB27B681A82F3
:1053400007F10C07BD4680BC704700BF80B483B036
:1053500000AF78600B467B807B884FEAC3534FEAEF
:10536000D3539AB27B689A8007F10C07BD4680BC84
:10537000704700BF80B483B000AF78607B689B88C3
:105380009BB24FEAC3534FEAD3539BB2184607F17F
:105390000C07BD4680BC704780B483B000AF786016
:1053A0007B689B899BB243F001039AB27B689A8128
:1053B00007F10C07BD4680BC704700BF80B483B0C6
:1053C00000AF78600B46FB707B681B8B9BB2DBB237
:1053D0009AB27B681A837B681B8B9AB2FB789BB26C
:1053E0004FEA03239BB213439AB27B681A8307F1F7
:1053F0000C07BD4680BC704780B483B000AF7860B6
:105400000B46FB707B681B8B9BB223F0FF039AB2A9
:105410007B681A837B681B8B9AB2FB789BB2134321
:105420009AB27B681A8307F10C07BD4680BC7047AF
:1054300080B483B000AF78600B46FB70FB78002B24
:1054400008D07B689B8A9BB243F020039AB27B68AA
:105450009A8207E07B689B8A9BB223F020039AB272
:105460007B689A8207F10C07BD4680BC704700BF7D
:1054700080B483B000AF78600B46FB70FB78002BE4
:1054800008D07B689B8A9BB243F010039AB27B687A
:105490009A8207E07B689B8A9BB223F010039AB242
:1054A0007B689A8207F10C07BD4680BC704700BF3D
:1054B00080B483B000AF78600B46FB70FB78002BA4
:1054C00008D07B689B8A9BB243F008039AB27B6842
:1054D0009A8207E07B689B8A9BB223F008039AB20A
:1054E0007B689A8207F10C07BD4680BC704700BFFD
:1054F00080B483B000AF78600B46FB70FB78002B64
:105500000AD07B689B899BB26FEA43436FEA53439F
:105510009AB27B689A8109E07B689B899BB24FEACB
:1055200043434FEA53439AB27B689A8107F10C07D1
:10553000BD4680BC704700BF80B483B000AF7860C8
:105540000B46FB70FB78002B08D07B689B8A9BB2D4
:1055500043F400639AB27B689A8207E07B689B8A77
:105560009BB223F400639AB27B689A8207F10C071E
:10557000BD4680BC704700BF80B483B000AF786088
:105580000B467B807B689B8A9BB223F004039AB214
:105590007B689A827B689B8A9AB27B8813439AB213
:1055A0007B689A8207F10C07BD4680BC704700BF3C
:1055B00080B483B000AF78600B46FB70FB78002BA3
:1055C00008D07B689B8A9BB243F002039AB27B6847
:1055D0009A8207E07B689B8A9BB223F002039AB20F
:1055E0007B689A8207F10C07BD4680BC704700BFFC
:1055F00080B485B000AF78600B467B804FF000032D
:10560000FB737B681B889AB27B8813409BB2002B8C
:1056100003D04FF00103FB7302E04FF00003FB7374
:10562000FB7B184607F11407BD4680BC704700BFDE
:1056300080B483B000AF78600B467B807B886FEAD4
:1056400003039AB27B681A8007F10C07BD4680BC41
:10565000704700BF80B487B000AF78600B467B8096
:105660004FF00003FB604FF000037B614FF000033D
:10567000BB604FF00003FB747B88DBB24FEA53132F
:10568000DBB2BB607B8803F01F037B617B694FF05B
:10569000010202FA03F37B61BB68012B06D17B6830
:1056A0009B899BB27A6913407B610FE0BB68022B38
:1056B00006D17B681B8A9BB27A6913407B6105E047
:1056C0007B689B8A9BB27A6913407B617B884FEA37
:1056D00013239BB2FB60FB684FF0010202FA03F355
:1056E000FB607B681B889BB2FA681340FB607B6998
:1056F000002B06D0FB68002B03D04FF00103FB7496
:1057000002E04FF00003FB74FB7C184607F11C0716
:10571000BD4680BC704700BF80B485B000AF7860E4
:105720000B467B804FF00003FB814FF00003BB81F1
:105730007B884FEA1323FB81FB894FF0010202FAB9
:1057400003F3BB81BB896FEA03039AB27B681A80BB
:1057500007F11407BD4680BC704700BF80B582B01A
:1057600000AF45F62833C0F600037B6040F200032B
:10577000C2F200033B600BE07B681A683B681A606A
:105780003B6803F104033B607B6803F104037B6027
:105790003A6840F22C03C2F200039A42ECD30D485F
:1057A0000D494FF000028842B8BF40F8042BFADBE5
:1057B00045F63903C0F60003984742F61163C0F678
:1057C0000003984707F10807BD4680BD80B400AFCD
:1057D000FEE700002C0000205801002080B400AF3C
:1057E000BD4680BC704700BF80B400AFFEE700BF7D
:1057F00080B400AFFEE700BF80B400AFFEE700BF9B
:1058000080B400AFFEE700BF80B400AFBD4680BCEF
:10581000704700BF80B400AFBD4680BC704700BF7A
:1058200080B400AFBD4680BC704700BF80B400AFFD
:10583000BD4680BC704700BF80B500AF4FF48053B9
:10584000C4F202034FF48052C4F20202126842F022
:1058500001021A604FF48052C4F202024FF48053E6
:10586000C4F2020359684FF00003CFF6FF030B4068
:1058700053604FF48053C4F202034FF48052C4F2D9
:105880000202126822F0847222F480321A604FF40D
:105890008053C4F202034FF48052C4F20202126831
:1058A00022F480221A604FF48053C4F202034FF4B2
:1058B0008052C4F20202526822F4FE025A604FF48F
:1058C0008053C4F202034FF41F029A604FF48053D6
:1058D000C4F202034FF00002DA6200F09FF880BDCC
:1058E00080B485B000AF4FF00003FB604FF00003C1
:1058F000BB604FF000037B604FF000033B604FF450
:105900008053C4F202035B6803F00C03FB60FB6886
:10591000042B0DD0082B15D0002B53D140F21803C7
:10592000C2F200034FF49052C0F27A021A6053E0C0
:1059300040F21803C2F200034FF49052C0F27A0210
:105940001A6049E04FF48053C4F202035B6803F429
:105950007013BB604FF48053C4F202035B6803F41E
:1059600080337B60BB684FEA934303F10203BB6063
:105970007B68002B0CD1BA684FF41063C0F23D0372
:1059800003FB02F240F21803C2F200031A6023E0A4
:105990004FF48053C4F20203DB6A03F00F0303F1F8
:1059A00001033B604FF49053C0F27A033A68B3FBB3
:1059B000F2F3BA6802FB03F240F21803C2F20003EA
:1059C0001A6009E040F21803C2F200034FF490524B
:1059D000C0F27A021A6000BF4FF48053C4F202038F
:1059E0005B6803F0F0034FEA131240F21C03C2F2AB
:1059F00000039B5CDBB2FB6040F21803C2F20003C1
:105A00001A68FB6822FA03F240F21803C2F200039C
:105A10001A6007F11407BD4680BC704780B500AF1F
:105A200000F002F880BD00BF80B483B000AF4FF03B
:105A300000037B604FF000033B604FF48053C4F2DF
:105A400002034FF48052C4F20202126842F4803220
:105A50001A604FF48053C4F202031B6803F400334E
:105A60003B607B6803F101037B603B68002B03D143
:105A70007B68B3F5A06FECD14FF48053C4F20203FE
:105A80001B6803F40033002B03D04FF001033B608D
:105A900002E04FF000033B603B68012B3FD14FF425
:105AA0008053C4F202034FF48052C4F202025268DF
:105AB0005A604FF48053C4F202034FF48052C4F290
:105AC000020252685A604FF48053C4F202034FF44A
:105AD0008052C4F2020252685A604FF48053C4F2FA
